:100000000C9429060C9446060C9446060C9446065D
:100010000C9446060C9446060C9446060C945B061B
:100020000C9446060C9446060C9446060C94460620
:100030000C9446060C9446060C9446060C94460610
:100040000C9446060C9446060C9446060C94460600
:100050000C944606FF7F627F8A7D7D7A4276E3704C
:100060006E6AF262825A34511D47573CFC30282593
:10007000F9188C0C000074F307E7D8DA04CFA9C391
:10008000E3B8CCAE7EA50E9D92951D8FBE8983856B
:1000900076829E80004020601050307008482868AA
:1000A0001858387804442464145434740C4C2C6C60
:1000B0001C5C3C7C02422262125232720A4A2A6A58
:1000C0001A5A3A7A06462666165636760E4E2E6E20
:1000D0001E5E3E7E0141216111513171094929693C
:1000E0001959397905452565155535750D4D2D6D10
:1000F0001D5D3D7D03432363135333730B4B2B6B08
:100100001B5B3B7B07472767175737770F4F2F6FCF
:100110001F5F3F7F000001020406090C1014181D28
:1001200022282D333A40474E555C636B72798188A3
:100130008F969EA5ACB3B9C0C6CCD2D8DDE2E7EBB2
:10014000EFF3F6F9FBFDFEFFFFFFFEFDFBF9F6F313
:10015000EFEBE7E2DDD8D2CCC6C0B9B3ACA59E9632
:100160008F888179726B635C554E47403A332D28F6
:10017000221D1814100C09060402010000000000E2
:10018000000000000000000000000000000000006F
:1001900000000000C601C201BC01B701B201AC0100
:1001A000A901A401646F776E0075700072696768B9
:1001B00074006C6566740073746F700073746172A0
:1001C00074006F6666006F6E0089D1B7BFA016E33A
:1001D0003E2025863EB796013FAC71BABFA6620BA2
:1001E0003FF915EBBC31D0F5BD06BC8CBD7079B2C2
:1001F0003FBB7C8FBF7E8A3FBFC9AF7FBE323AA074
:10020000BC583B723F34F48D3F7991293FBB99D163
:10021000BCD57BEABE533D15BF6F0C213FA515EF42
:10022000BE0C3DC2BE28D586BE11C508BF0CAF4866
:10023000BFFDA32B3F4B061D407C5FDABFD2A68AD1
:100240003DB247A83C8CA316BF7EAA2E3F20417129
:100250003C0150E5BE2C7F0ABF82E5203FADC2EED7
:10026000BEB919BEBE0F0E86BE80D5B1BE33162DE7
:10027000BFB6BB2B3F1B83563FC328D63F63B89AFC
:100280003DCC9B933E8CA316BFE44E293F29E81A30
:10029000BFA27CF1BE064725BF0E4A203FB62DE225
:1002A000BE8CF2BCBE430286BEADF6B0BEA0C42F6B
:1002B000BF247F2C3FC5C6DC3E51D845BD54A88E17
:1002C0003DF73C7BBF8CA316BFF46AB8BF40DF96F6
:1002D000BD40A58C4089B6B140128922C0EEB29FC4
:1002E000BEA3C99F4075034D4102F57D405930972B
:1002F0003FC34813BF136246BF8C1307BF96B1A11B
:10030000BCF9307F3FA977EE4002D6BABF874D6473
:100310003E7040DB3E53E7993F4BCAE1BF6A6784BA
:100320003FF227F23ED1AD273EFC17C83DEF71D614
:100330003F0AF8C1BF24EF44BF3C17063D35631D9B
:100340003F4BCB0C3FF59FAF3FD5932D3F5470787B
:10035000BE915FE7BEEF8F0FBF75C9203F65ABEB66
:10036000BEF20BBFBEC04286BE7670B0BE38DB2C7C
:10037000BF4B062C3FFF06193F0A2BCD3E0F2AB17B
:100380003DF164F7BD8CA316BF9A5E223F529AEDF1
:10039000BEA27CF1BE064725BFAAD4203FCEFEE810
:1003A000BE26FFC3BE3F3887BE96402ABF53B15D0D
:1003B000BF815E2C3F9B37D6405F241DC0E69490E2
:1003C000BED1765CBF8CA316BF4372BEBFC1C50A47
:1003D0003DCD934740C28AB93F71036EBE3E037E56
:1003E00040AF5C5540A4FE963F66F4504091458274
:1003F0003F7CD6E9BFE5B645BF7787343FE3DD11E3
:10040000BC38660DBF6A18A63FBDE3A6BFC4BF8552
:1004100040B45984408C12534048DFF4BEB0C978D0
:1004200040A7B2D640E3545440D7BE7340DFF955DD
:100430003F13BBDCBFE21F46BF8C1307BFE5D06292
:100440003D61E322BFD78A663FDC67BBBF5115130E
:10045000BDD768593E09C6813FA391E9BFB7419D09
:100460003E2924F93D6D1C31BCA29B85BE1D91D750
:100470003F85B19FBF228C43BFE0F3C3BB96B1A1C0
:10048000BC81054C3FDE21813FAA0E353F467E8D63
:100490003EB83AD0BE7C27C6BE1F2F203FA8AAE890
:1004A000BE6474B8BEFA4280BE79CC30BEE7351A5D
:1004B000BF12692B3FC153C8BE164D7B3F70B4A31A
:1004C0003D9CDE9D3F8CA316BF282C2D3F293CE090
:1004D000BEA27CF1BE064725BFE2CB203F4DF9F01E
:1004E000BEB667B6BE86A985BE212285BE778225A7
:1004F000BF904F2C3F7D5DA6BDE449EABE0937B9E8
:100500003D03CC74BF8CA316BF26E5C0BF02623288
:10051000BE8C1D8740F01937406535BDBE2EC957CA
:10052000401EA93E402B4D5D40AED38040AE7F8B38
:100530003FE6E906C0680946BF350A8B3FB7283356
:10054000BCF12B0EBF594E1A3F5918C0BFE6223ED0
:10055000BE6A68414006106540419D32BD5C1EA5E3
:100560003F11FD8C3F67624D40003B4640535B2E80
:100570003F4EB6E7BF53EB45BF5F241DC0128684D4
:10058000C1446AD2BE594E1A3FA510B8BFD9CD1882
:100590003F156FC43E2906AC3F1C3FE4BFA180B5A8
:1005A0003E1FF3A13E0795183E27120CBD6743DCA2
:1005B0003F2A55CCBF446F45BFC631423E96B1A1DC
:1005C000BC5568C83EFE99793FA75A2B3F906B1FD8
:1005D000BFA27CF1BE064725BFD028213F58AAFB09
:1005E000BE664AB3BEF3AC84BE223688BEE867223C
:1005F000BF80812C3FCB2D85BE16BF49BE3B8CA949
:100600003D304B85BF8CA316BF49A23F3F992C8C30
:100610003F3F90C4BE4E6393BE8A92203F8B35F419
:10062000BE1BBAB9BED6C979BEEB8F80BE84BC26CC
:10063000BF69C7293FF38DF0BE20D0693F22DF8517
:100640003DD0F19F3F8CA316BF936FBCBF4660C4E3
:100650003EA4187C4094F94E40B08F9EBEA7B011C6
:1006600040E4F30C4007B65C4044166D40076083DD
:100670003F27FAF8BF190446BFF486833ED7860A9F
:10068000BCD63611BF1EDC8F3FA3AEBFBF62D89170
:10069000BE8C11EF3F90D8234022DFEDBE950FA115
:1006A0003FA648983F857DBD3F3E590B40ECA38552
:1006B0003F594DE7BFE49F45BF3A3B813E399B0E12
:1006C000B9087521BEAA63993F3B6FA9BF501C179B
:1006D00040BC92943EDB31853F3068DBBF448B8C5D
:1006E0003DC520F03DCE19913EA62902BEDFFACECF
:1006F0003F747EAABF34BC41BF6FBC93BE6E6AA07C
:10070000BCB587193FD7F6CE3EA75B323F0C7613B8
:10071000BEE02CEDBEAB791ABFD3D9213F3D6303B8
:10072000BFD5CEB8BE3CA385BE0CEABBBE81242C8F
:10073000BFC7F12B3F7C0D013E588C1A3E4FE5346C
:100740003D2B88B1BE8CA316BF47712E3F7B68C777
:10075000BEA27CF1BE064725BF9544223F75220507
:10076000BF6E6DC1BED6AD86BE560CFFBE6EFC41DF
:10077000BFE84E2C3F87C1B83FE00E09C04D672748
:100780003D473A6BBF8CA316BF2F51BFBF96EA926D
:10079000BEFFEC7340EB5513405A67ECBEFD1616D6
:1007A0004040259B4078ED18403FE661409E95947F
:1007B0003F5797C7BFE90A46BF4B0244BE9D125040
:1007C0003D55143FBF27A0E53FBAF6C1BFD4824FC5
:1007D000BF3EAF983D0ABF203FCE18F4BFC5598930
:1007E0003E97003CBEE948CEBD2BFB96BE0820E9F3
:1007F0003F4222B3BF2D0544BF79CC603E96B1A1E4
:10080000BC9B028B3F29CDB23F098DAABF603AFD48
:100810003FF0DAC53DE7AB103F1A19DABF608FA988
:100820003D4AD2F5BDEB36E8BD2AE3A7BE00E5C5DB
:100830003F7A3594BF76A541BFC992D9BD96B1A183
:10084000BCFF22743F34F48D3F79EB303F1FA1E6AB
:10085000BEA27CF1BE064725BF3CF8213F8F8B022C
:10086000BF4BE8BEBECAA486BEF033C6BED26D354D
:10087000BFDD602C3F20F11B3F38D7983E266D8AA4
:100880003DFDBE63BF8CA316BFC5AD363FE4119CD2
:100890003D6806D9BE14AEDFBEA584203F3F6EE79B
:1008A000BE295BBCBE520E86BEB114B1BE1EC32FA4
:1008B000BF3EB42B3F24257D3E5A65863E375361AB
:1008C0003DD2A7893F8CA316BF5A49333F5DE20C46
:1008D000BFA27CF1BE064725BFCAE0203FE162F51A
:1008E000BE7FC2B1BE197585BEC61692BE6EA32567
:1008F000BFDE772C3F54C38EBE10AF0FBFD601B002
:100900003D0B6181BF8CA316BFDE71BEBFDA1BA495
:10091000BEBD01E63D395E413FC51FF7BF7F4C4F6D
:100920003FB8C8BDBC7FFB2ABE9D0DA9BE9DF4E0AB
:100930003F779FABBF776943BF6876BD3D96B1A156
:10094000BC4C50833F7409C93F3754BABFAD30D552
:100950003EB456E43E0F44A23F9A43E0BF74D168D0
:100960003FCF48DC3EF390093ECA31B93D1BD5D597
:100970003F293FDBBF1B6244BFC992D9BD6A6D9A54
:10098000BCE02B223F20D3A43F6D58273FE0F3E388
:10099000BE9BE4EFBEC6A41FBFBFBB213F8330FF99
:1009A000BE1C79C0BEF69A86BEE7A8D3BE103D3104
:1009B000BFFB592C3FB116573FC66CF5BF73F5838B
:1009C0003D973882BE8CA316BFD49A2E3F2C2C9014
:1009D0003E58C9CFBEDB13BCBE2097203FF184E652
:1009E000BE471EC0BE348586BE740705BF14CE4206
:1009F000BF89612B3F39D54A3F355D6FBE41B8A2F3
:100A00003D1D3DBC3F8CA316BF22E22A3FDF8C3246
:100A1000BFD93DF1BE749B24BF546F213F2590FA8E
:100A2000BE01FABDBEC51A86BE9B70C7BE207E2E13
:100A3000BF32932C3F0A4AF13E7CF1C5BC67B98CAA
:100A40003DB11689BF8CA316BF056ABFBF139B0FAC
:100A5000BEAF3F0F40B9FC953F1E8D833DE02BEEAE
:100A60003FACC5FD3F04746F3F41F5334042405EEB
:100A70003FF627F9BF323D45BF18ED013E9EB29AC1
:100A8000BBE3503FBE3FE2B73F1878A6BF8317379E
:100A9000405DFCB53E55BE073F710295BF65C8A1DC
:100AA0003EB6F3BDBD4C54EFBDB0E6E03DF88995D0
:100AB0003FB70B91BFCC273FBF6FBC93BED009A1FE
:100AC000BC7670483FD8B7333F4AED313F817CE96F
:100AD000BEC8CDF0BECCB223BFE484213F2CB6F912
:100AE000BE897AC1BE17D986BE62D8D1BECE003BC0
:100AF000BF185F2C3F1B4AC73FC268D6BEBB80B73A
:100B00003D72374CBF8CA316BF0C95373FF3577817
:100B1000BEA27CF1BE064725BF6188203F1C61F163
:100B2000BE4417ACBE18EE84BE2CF376BE3A052543
:100B3000BF62102C3F0893D2BEE52739BF2FE1904A
:100B40003D136361BF8CA316BF74B64C3F249A4813
:100B50003F5A46B2BE166B88BE86C71E3F1138C2CA
:100B6000BED383BABE223886BE22AB7BBEFAD42166
:100B7000BF527E2A3F5C55163EEF008F3E1C0BAAEB
:100B80003D5C3AB23F8CA316BFAF5DBEBF9FCD02A6
:100B9000BFA7AF873E2B34483F3CA2C2BF94833DE2
:100BA0003F0ABF543DE04820BE16A118BD5BD1BE30
:100BB0003F0E157FBF1B8441BFC6A84BBE96B1A197
:100BC000BC9144873F8927B93F3203B53DB37D4887
:100BD0003CC11AA73D2026813D97369C3C261DE549
:100BE0003A6F9E6A3A2A3BFD3AE36B8F3D630D975D
:100BF0003E0F643D3EBC755F45263A3B3E21E69282
:100C00003C8848093F029BD33D47FF0B3E85268920
:100C10003C82E41D3DC6A2293DEB534E3D556A760C
:100C20003AE65AB439A1F4053ADC11AE3D583CA578
:100C30003E6308603FF02B2D45363FEE3E1399B9D9
:100C4000393E967E3DD5059C3D0505050505050506
:100C5000050011241FBECFE5D8E0DEBFCDBF12E0F6
:100C6000A0E6B0E0E6E0FCE402C005900D92A036FC
:100C7000B107D9F724E0A0E6B2E001C01D92A83A7E
:100C8000B207E1F70E94E41E0C94C0250C9400000A
:100C900080E687B986E886B9369A3699FECF0895F8
:100CA0001FBC89E08EBD85E695E09BBD8ABD89B7F6
:100CB000806189BF08951F921FB61F9211242F9340
:100CC0008F939F93EF93FF9380916102811521F1A0
:100CD000809162029091630280349F4130F5369A90
:100CE0003699FECF25B1809167028F5F8F73909107
:100CF00066029817E9F0E0916702F0E0E859FD4FCD
:100D00002083809367028091620290916302019632
:100D10009093630280936202FF91EF919F918F9174
:100D20002F911F901FBE1F90189510926102F4CF53
:100D3000809160028F5F80936002E5CF90916602A0
:100D400080916702981739F1209164023091650211
:100D500020348FE13807F0F4E0916602F0E0E859C2
:100D6000FD4F6081909166029F5F9F739093660232
:100D7000C9010E94CD208091640290916502019684
:100D8000909365028093640290916602809167025D
:100D90009813DACF089508951092650210926402B4
:100DA0001092670210926602109260021092630223
:100DB0001092620281E080936102089520916202A4
:100DC0003091630281E020343F4108F480E00895CF
:100DD0002F923F924F925F926F927F928F929F924B
:100DE000AF92BF92CF92DF92EF92FF920F931F9339
:100DF000CF93DF93CDB7DEB7CC54D1090FB6F894BB
:100E0000DEBF0FBECDBF0F2EF9E0CF2EFCE0DF2EF0
:100E1000F02D09EC1BE0A82EB92E0F2EF9E4EF2ED1
:100E2000FCE0FF2EF02DCE0101964C01F60125913C
:100E3000359145915591F801459055906590759083
:100E4000F50161917191819191915F010E94A021C1
:100E5000A30192010E941222F40161937193819384
:100E600091934F01F4E0CF0ED11C0C5F1F4FCE14B5
:100E7000DF04E1F689E49CE025969FAF8EAF2597CD
:100E8000E9ECF1E02796FFAFEEAF279723961FAE70
:100E90002397FAEC2896FFAF289782EF29968FAF19
:100EA000299799E42A969FAF2A97E1E72B96EFAF0F
:100EB0002B972C961FAE2C9722242394312C2C0E8A
:100EC0003D1EF0E42F0E311CA0C0D72CE62CF52CD3
:100ED0007D2C6E2C5F2CC394F0E48F0E911C229617
:100EE0008FAD22978C1509F446C0FE0131965F0143
:100EF0008401D12CE12CF12C2D961FAE2D97F801F9
:100F00002591359145915591F501619171918191AD
:100F100091915F010E94A021262F372F482F592F32
:100F20000E949824262F372F482F592F2D96EFAD4A
:100F30002D976D2D7E2D8F2D9E2F0E94A121D62EB7
:100F4000E72EF82E2D969FAF2D970C5F1F4FA21402
:100F5000B304A9F6272D362D452D542D2D96EFAD32
:100F60002D979E2F0E940D2281150CF0AECF2D964D
:100F70004FAC2D97ADCF272D362D452D542D2896CE
:100F8000BFAD28972996AFAD29972A96FFAD2A972E
:100F90002B96EFAD2B976B2F7A2F8F2F9E2F0E94C2
:100FA000CD23811599F094F028967FAE2897299645
:100FB0006FAE29972A965FAE2A972B964FAE2B9746
:100FC00023968FAD23972C968FAF2C9723969FADAA
:100FD00023979F5F23969FAF23972596EEADFFAD96
:100FE000259731962596FFAFEEAF259727968EADC4
:100FF0009FAD2797805C9E4F27969FAF8EAF279718
:1010000023969FAD2397983091F12596EEADFFADD5
:101010002597849122968FAF22970F2EFAEC7F2E80
:10102000F02D0F2EF2EF6F2EF02D0F2EF9E45F2E24
:10103000F02D0F2EF1E74F2EF02D811509F49BCFE7
:1010400027968EAC9FAC2797A12C0F2EFAEC7F2E03
:10105000F02D0F2EF2EF6F2EF02D0F2EF9E45F2EF4
:10106000F02D0F2EF1E74F2EF02DCA2C3ECF2C96EF
:101070008FAD2C97C45BDF4F0FB6F894DEBF0FBE69
:10108000CDBFDF91CF911F910F91FF90EF90DF9037
:10109000CF90BF90AF909F908F907F906F905F9018
:1010A0004F903F902F9008952F923F924F925F92D2
:1010B0006F927F928F929F92AF92BF92CF92DF9268
:1010C000EF92FF920F931F93CF93DF93CDB7DEB7CD
:1010D000CA5FD2400FB6F894DEBF0FBECDBFC25577
:1010E000DD4F8883CE5AD240C155DD4F9883CF5A09
:1010F000D2408E0107531F4FC056DD4F198308831E
:10110000C05AD240085C1109C256DD4F19830883CA
:10111000CE59D240CF56DD4F19821882C159D240E4
:10112000CD56DD4F1882C359D240CB56DD4F1882C1
:10113000C559D240C756DD4F1882C959D240C5564D
:10114000DD4F1882CB59D240C456DD4F1882CC599E
:10115000D240312C212C06C18FEF52C01F5F1038B6
:1011600009F459C02FEFC21AD20A882EC6010E9474
:101170002A218E53990BBC01660F771F660F771FCC
:10118000660F771F61383FEF730714F461E87FEF54
:101190006038710514F06FE770E0072E000C880BC3
:1011A000990B0E94F62220E030E04EEF52E40E94BC
:1011B0001222962EE72EF82E092F262F372F482F92
:1011C000592F0E949824262F372F482F592F6A2DE8
:1011D0007B2D872D962D0E94A121A62EB72E782E2D
:1011E000692E90E080E0232D322DAC01692D7E2DFB
:1011F0008F2D902F0E94CD2381150CF4ADCF81E06F
:10120000111511F40C941F1E881509F4A7CF4FEF88
:10121000441A540AA3CF20E030E040E05CE36A2D9A
:101220007B2D872D962D0E949824E62EF72E082FD1
:10123000192F862F9F2DA02FB12FC256DD4FE88189
:10124000F981CE59D24081939193A193B193C25623
:10125000DD4FF983E883CE59D240B20180E090E0BF
:101260000E94F42220E030E040E05CE30E949824F9
:10127000C056DD4FA881B981C05AD2406D937D938D
:101280008D939D93C056DD4FB983A883C05AD24039
:10129000DD24D394CD56DD4F7881C359D240CB564F
:1012A000DD4F6881C559D240C756DD4F9881C95975
:1012B000D240C556DD4F8881CB59D240272F362FDB
:1012C000492F582F6E2D7F2D802F912F0E94CD23D7
:1012D000811509F00CF455C0D11014C0CD56DD4F66
:1012E000E880C359D240CB56DD4FF880C559D24073
:1012F000C756DD4F0881C959D240C556DD4F188108
:10130000CB59D240CD56DD4FE882C359D240CB569F
:10131000DD4FF882C559D240C756DD4F0883C95901
:10132000D240C556DD4F1883CB59D240C456DD4F4D
:101330001881CC59D2401F5FCF56DD4FE881F9812B
:10134000C159D240E05CFF4FCF56DD4FF983E883AF
:10135000C159D240E038FC40B1F0C456DD4F18838B
:10136000CC59D240CF56DD4FC880D980C159D24028
:10137000812C412C512CA32CB22C3201912C192DF3
:10138000F5CED12CA9CF143040F12AE037ED43EA55
:101390005CE3CD56DD4FB881C359D240CB56DD4F0B
:1013A000A881C559D240C756DD4FF881C959D240EE
:1013B000C556DD4FE881CB59D2406B2F7A2F8F2F46
:1013C0009E2F0E949824D62EC72EB82EA92E9E019D
:1013D0002F5F3F4F790100E013C0C255DD4FE88118
:1013E000F981CE5AD240CF01805C9F4F1192119269
:1013F000119211928E179F07C9F70C94001E082FA7
:101400002D2D3C2D4B2D5A2DD7016D917D918D9118
:101410009D910E94CD23811511F00CF091C0B4E094
:10142000EB0EF11C81E0800FC456DD4FE881CC59F2
:10143000D2400E13E4CFC055DD4F1882C05BD240BE
:10144000C456DD4F0881CC59D240E02EF12CF70173
:10145000EE0FFF1FEE0FFF1F21E030E02C0F3D1FAE
:10146000E20FF31F2D2D3C2D4B2D5A2D60817181E4
:10147000828193810E94CD23811511F00CF06AC006
:1014800001500111E2CFC456DD4F0881CC59D24042
:10149000CF54DD4F0883C15BD240CF54DD4F8881EC
:1014A000C15BD240C055DD4F0881C05BD240801B7C
:1014B0008F5FCE54DD4F8883C25BD240843008F406
:1014C00061C0CF54DD4F1881C15BD240101708F0C6
:1014D0006DC0C256DD4F1882CE59D240C056DD4F86
:1014E0001882C05AD240CE55DD4F1882C25AD2401F
:1014F000CD55DD4F1882C35AD240CB56DD4F1882EE
:10150000C559D240C756DD4F1882C959D240C55679
:10151000DD4F1882CB59D240C456DD4F1882CC59CA
:10152000D240312C212CCF56DD4F1882C159D240E8
:10153000CD56DD4F1882C359D240310121013FC140
:10154000033008F403E00350C055DD4F0883C05B4F
:10155000D24076CF33E0E30EF11CE116F1043CF407
:101560000D5FCF54DD4F0883C15BD24096CFC45688
:10157000DD4F0881CC59D240CF54DD4F0883C15B89
:10158000D2408BCFCE54DD4F1883C25BD240C456BD
:10159000DD4F0881CC59D240CF54DD4F0883C15B69
:1015A000D240C055DD4F1882C05BD240C055DD4FE0
:1015B0001881C05BD240812F90E05C01AA0CBB1C5B
:1015C000AA0CBB1C01E010E00C0F1D1F0A0D1B1D17
:1015D00029EC30E02C0F3D1FA20EB31ECF54DD4F7F
:1015E0002881C15BD240C055DD4F3881C05BD240FD
:1015F000231B820F911D880F991F880F991F882424
:101600008394912C8C0E9D1E44E0840E911C880EB8
:10161000991EC256DD4F1882CE59D240C056DD4FBA
:101620001882C05AD240CE55DD4F1882C25AD240DD
:10163000CD55DD4F1882C35AD240CB56DD4F1882AC
:10164000C559D240C756DD4F1882C959D240C55638
:10165000DD4F1882CB59D240C456DD4F1882CC5989
:10166000D240312C212CCF56DD4F1882C159D240A7
:10167000CD56DD4F1882C359D24031012101D80126
:10168000CD90DD90ED90FD908D01A7019601672D25
:10169000762D852D942D0E94A121762E672E582E11
:1016A000492EA7019601C701B6010E949824262F52
:1016B000372F482F592F632D722DCF56DD4F88813C
:1016C000C159D240CD56DD4F9881C359D2400E94B6
:1016D000A121362E272ECF56DD4F8883C159D24007
:1016E000CD56DD4F9883C359D240F501C190D190BA
:1016F000E190F1905F01A7019601CB56DD4F688123
:10170000C559D240C756DD4F7881C959D240C55618
:10171000DD4F8881CB59D240C456DD4F9881CC59DA
:10172000D2400E94A121CB56DD4F6883C559D240DB
:10173000C756DD4F7883C959D240C556DD4F8883DF
:10174000CB59D240C456DD4F9883CC59D240A70123
:101750009601C701B6010E949824262F372F482FE3
:10176000592FC256DD4F6881CE59D240C056DD4F49
:101770007881C05AD240CE55DD4F8881C25AD240BE
:10178000CD55DD4F9881C35AD2400E94A121C25647
:10179000DD4F6883CE59D240C056DD4F7883C05AA2
:1017A000D240CE55DD4F8883C25AD240CD55DD4F51
:1017B0009883C35AD2400815190509F060CFCE545A
:1017C000DD4F1881C25BD240012F10E0C651DD4FC2
:1017D00019830883CA5ED240CE54DD4F0881C25BB4
:1017E000D240602F70E080E090E00E94F622C55366
:1017F000DD4F6883CB5CD240C453DD4F7883CC5C33
:10180000D240C353DD4F8883CD5CD240C253DD4FFD
:101810009883CE5CD240262F372F482F592F672D23
:10182000762D852D942D0E941222C153DD4F6883A1
:10183000CF5CD240C053DD4F7883C05DD240CF52E1
:10184000DD4F8883C15DD240CE52DD4F9883C25DAB
:10185000D240C553DD4F2881CB5CD240C453DD4F0D
:101860003881CC5CD240C353DD4F4881CD5CD2403F
:10187000C253DD4F5881CE5CD240632D722DCF56BE
:10188000DD4F8881C159D240CD56DD4F9881C35973
:10189000D2400E941222162F072FF82EE92EC15394
:1018A000DD4F2881CF5CD240C053DD4F3881C05D11
:1018B000D240CF52DD4F4881C15DD240CE52DD4F84
:1018C0005881C25DD240C153DD4F6881CF5CD240A8
:1018D000C053DD4F7881C05DD240CF52DD4F88814B
:1018E000C15DD240CE52DD4F9881C25DD2400E9490
:1018F0009824262F372F482F592F612F702F8F2D87
:101900009E2D0E94A0210E940B25CE51DD4F6883A1
:10191000C25ED240CD51DD4F7883C35ED240CC5100
:10192000DD4F8883C45ED240CB51DD4F9883C55EC6
:10193000D240C553DD4F2881CB5CD240C453DD4F2C
:101940003881CC5CD240C353DD4F4881CD5CD2405E
:10195000C253DD4F5881CE5CD240CB56DD4F6881FB
:10196000C559D240C756DD4F7881C959D240C556B6
:10197000DD4F8881CB59D240C456DD4F9881CC5978
:10198000D2400E941222C252DD4F6883CE5DD24007
:10199000C152DD4F7883CF5DD240C052DD4F888386
:1019A000C05ED240CF51DD4F9883C15ED240C55357
:1019B000DD4F2881CB5CD240C453DD4F3881CC5CF5
:1019C000D240C353DD4F4881CD5CD240C253DD4F7E
:1019D0005881CE5CD240C256DD4F6881CE59D2408C
:1019E000C056DD4F7881C05AD240CE55DD4F888138
:1019F000C25AD240CD55DD4F9881C35AD2400E9481
:101A00001222162F072FF82EE92EC252DD4F288101
:101A1000CE5DD240C152DD4F3881CF5DD240C05241
:101A2000DD4F4881C05ED240CF51DD4F5881C15E4D
:101A3000D240C252DD4F6881CE5DD240C152DD4FEF
:101A40007881CF5DD240C052DD4F8881C05ED240E8
:101A5000CF51DD4F9881C15ED2400E949824262F3D
:101A6000372F482F592F612F702F8F2D9E2D0E94B9
:101A7000A0210E940B25CA51DD4F6883C65ED2406B
:101A8000C951DD4F7883C75ED240C851DD4F88838E
:101A9000C85ED240C751DD4F9883C95ED240FE0177
:101AA000EF56FE4F80E091E0DF018C011D92015066
:101AB0001040E1F7CE54DD4F1881C25BD240C754CD
:101AC000DD4F1883C95BD240103130F00FE0C754AE
:101AD000DD4F0883C95BD240C055DD4F1881C05B24
:101AE000D240012F10E0CB54DD4F19830883C55B32
:101AF000D240C055DD4F0881C05BD24020E4029F38
:101B0000C001112424E131E08901081B190BC654DE
:101B1000DD4F19830883CA5BD24024E930E0890194
:101B2000081B190BC454DD4F19830883CC5BD240CA
:101B3000CB54DD4F88819981C55BD24002968C01E0
:101B40000024169507950794169507950794102F6E
:101B5000002DCD54DD4F19830883C35BD240C75499
:101B6000DD4F1881C95BD240810F911D8C0100248B
:101B7000169507950794169507950794102F002D35
:101B8000C251DD4F19830883CE5ED240C254DD4F6F
:101B90001882CE5BD240C154DD4F1882CF5BD24059
:101BA000C054DD4F1882C05CD240CF53DD4F188245
:101BB000C15CD240C652DD4F1882CA5DD240C552C8
:101BC000DD4F1882CB5DD240C452DD4F1882CC5D10
:101BD000D240C352DD4F1882CD5DD240CA52DD4F94
:101BE0001882C65DD240C952DD4F1882C75DD2400F
:101BF000C852DD4F1882C85DD240C752DD4F1882EF
:101C0000C95DD240CE53DD4F1882C25CD240CD5365
:101C1000DD4F1882C35CD240CC53DD4F1882C45CC8
:101C2000D240CB53DD4F1882C55CD240CA53DD4F42
:101C30001882C65CD240C953DD4F1882C75CD240BF
:101C4000C853DD4F1882C85CD240C753DD4F18829D
:101C5000C95CD240C653DD4F1882CA5CD240CD5217
:101C6000DD4F1882C35DD240CC52DD4F1882C45D77
:101C7000D240CB52DD4F1882C55DD240B5C6072E8B
:101C8000000C880B990B0E94F62220E030E04EEF0A
:101C900052E40E94122220E030E04EEF52E40E9413
:101CA00098240E94BE22462F572F549EC001559E55
:101CB000900D1124880F892F881F990BD7018D93C0
:101CC0009D93000F111FF801E855FD4F11821082FE
:101CD000BFEFAB1ABB0AAC14BD0451F1C5010E94A1
:101CE0002A21682FF501E60DF71D5490F501E80D46
:101CF000F91DE4910E2F10E0C801880F991F9C0177
:101D000028553C4F79016E53770B660F771F660F8E
:101D1000771F660F771F61383FEF730714F461E890
:101D20007FEF603871050CF4AACF6FE770E0A7CFA2
:101D300007E0C855DD4F0883C85AD24011E0C756A6
:101D4000DD4F1883C959D24057C1F0E0EE0FFF1F95
:101D5000EC5AFF4F85919591E0E2E60FEF77A0E412
:101D6000B0E0AE1BB109FD01EE0FFF1FEC5AFF4FB3
:101D7000259135913195219531091CC020E430E041
:101D80002E1B3109F901EE0FFF1FEC5AFF4F859111
:101D90009591919581959109605EE62FEF77262FB9
:101DA0002076211100C1F0E0EE0FFF1FEC5AFF4F2B
:101DB00025913591C556DD4F1881CB59D24011156B
:101DC0000CF49FC0319521953109312E092E000C5C
:101DD000AA0BBB0B2901330F660877086C017D0144
:101DE000822D830D90E0880F991FFC01E855FC4F70
:101DF000CF56DD4FF983E883C159D240008111816C
:101E0000FC01E855FD4FCD56DD4FF983E883C359FA
:101E1000D2400190F081E02DD801A70196010E94E7
:101E200092254B015C01DF01A30192010E949225E2
:101E3000861A970AA80AB90A990C4501881C991CA8
:101E4000AA08BB08A70196010E949225CB56DD4F38
:101E5000688379838A839B83C559D240D801A301C3
:101E600092010E949225CB56DD4F088119812A816B
:101E70003B81C559D240060F171F281F391FB901D2
:101E8000A801550FAB01441F551F660B770BE32DBF
:101E9000F0E0CF01880F991F8C0108551C4FD80125
:101EA0002D913D9128193909CF56DD4FE881F981EF
:101EB000C159D24031832083FC01E855FD4F208178
:101EC0003181241B350BCD56DD4FA881B981C35913
:101ED000D2402D933D93D8012D913D91280D391D70
:101EE0003E932E9320813181240F351F318320832F
:101EF000C756DD4F0881C959D240300E31140CF05D
:101F00006FCFC556DD4F1881CB59D2401F5FC556E4
:101F1000DD4F1883CB59D240C456DD4F088119815B
:101F2000CC59D24000581F4FC456DD4F1983088347
:101F3000CC59D240C556DD4F1881CB59D24012152D
:101F400009F44DC0C456DD4F88819981CC59D240E7
:101F5000C256DD4F68817981CE59D2400E947725E3
:101F6000E62FEF77862F8076811509F4EECE66FF97
:101F700005CFE03660F040E850E04E1B5109FA0111
:101F8000EE0FFF1FEC5AFF4F8591959105CFE0545E
:101F9000FF0BEE0FFF1FEC5AFF4F85919591919526
:101FA00081959109F9CE66FFDACEE03660F000E85F
:101FB00010E00E1B1109F801EE0FFF1FEC5AFF4F46
:101FC00025913591F7CEE054FF0BEE0FFF1FEC5A31
:101FD000FF4F25913591319521953109EBCEC855AB
:101FE000DD4F0881C85AD2400150C855DD4F0883E3
:101FF000C85AD240011509F1C756DD4F2880C9598A
:10200000D240022D000FC756DD4F0883C959D24078
:10201000211429F3C456DD4F19821882CC59D240BD
:10202000C556DD4F1882CB59D24010E0C256DD4F65
:1020300019830883CE59D24085CF0F2EF8EA4F2E50
:10204000F3E05F2EF02D08EA12E0C451DD4F198352
:102050000883CC5ED2408E010F561E4FC954DD4F0F
:1020600019830883C75BD24018010F2EF8EAEF2EC0
:10207000F2E0FF2EF02D6201C855DD4F1881C85ADD
:10208000D240612C00E0CF56DD4F1882C159D240BA
:10209000CD56DD4F1882C359D240CB56DD4F188242
:1020A000C559D240C756DD4F1882C959D240C556CE
:1020B000DD4F1882CB59D240C456DD4F1882CC591F
:1020C000D240C256DD4F1882CE59D240C056DD4FA5
:1020D0001882C05AD240CE55DD4F1882C25AD24023
:1020E000CD55DD4F1882C35AD240C755DD4F1882F7
:1020F000C95AD240C655DD4F1882CA5AD240C5557A
:10210000DD4F1882CB5AD240C455DD4F1882CC5ACD
:10211000D240CC55DD4F1882C45AD240CB55DD4F4A
:102120001882C55AD240CA55DD4F1882C65AD240CD
:10213000C955DD4F1882C75AD240C051DD4F598270
:102140004882C05FD240502E6FC0272D382D492DB8
:10215000502FCC55DD4FB881C45AD240CB55DD4FFE
:10216000A881C55AD240CA55DD4FF881C65AD2401F
:10217000C955DD4FE881C75AD2406B2F7A2F8F2F78
:102180009E2F0E94A121CC55DD4F6883C45AD240B6
:10219000CB55DD4F7883C55AD240CA55DD4F888371
:1021A000C65AD240C955DD4F9883C75AD24035C070
:1021B000103308F0C0C0272D382D492D502FC2569E
:1021C000DD4FB881CE59D240C056DD4FA881C05AEC
:1021D000D240CE55DD4FF881C25AD240CD55DD4FA9
:1021E000E881C35AD2406B2F7A2F8F2F9E2F0E94E7
:1021F000A121C256DD4F6883CE59D240C056DD4F73
:102200007883C05AD240CE55DD4F8883C25AD2401F
:10221000CD55DD4F9883C35AD2401F5FF2E0CF0EF9
:10222000D11C02E0E00EF11CF601A081B181F701A2
:10223000408151819D010E9460254B015C019A0102
:10224000DA010E946025680D791D8A1D9B1D0E9480
:10225000F422762E872E982E092FD1016D917D9133
:102260008D919D911D015D01B4E0AB1AB108272D40
:10227000382D492D502F0E94A121F50160837183D3
:1022800082839383272D382D492D502FCF56DD4F34
:10229000F881C159D240CD56DD4FE881C359D240B3
:1022A000662D752D8F2F9E2F0E94A121662E572EF1
:1022B000CF56DD4F8883C159D240CD56DD4F98832C
:1022C000C359D240103108F440CF103208F070CF1B
:1022D000272D382D492D502FCB56DD4FB881C559AC
:1022E000D240C756DD4FA881C959D240C556DD4FEF
:1022F000F881CB59D240C456DD4FE881CC59D24049
:102300006B2F7A2F8F2F9E2F0E94A121CB56DD4F4E
:102310006883C559D240C756DD4F7883C959D2402A
:10232000C556DD4F8883CB59D240C456DD4F9883C4
:10233000CC59D24072CF272D382D492D502FC7555B
:10234000DD4FB881C95AD240C655DD4FA881CA5A5F
:10235000D240C555DD4FF881CB5AD240C455DD4F30
:10236000E881CC5AD2406B2F7A2F8F2F9E2F0E945C
:10237000A121C755DD4F6883C95AD240C655DD4FEC
:102380007883CA5AD240C555DD4F8883CB5AD24094
:10239000C455DD4F9883CC5AD2401F5F103409F0EA
:1023A0003DCF052DC051DD4F48805980C05FD240E0
:1023B00027E73CEC4BE252E3CF56DD4FF881C159A1
:1023C000D240CD56DD4FE881C359D240662D702FE3
:1023D0008F2F9E2F0E94A121262F372F482F592F54
:1023E00060E070E080E89FE30E941222162F072F22
:1023F000F82EE92ECC55DD4F7881C45AD240CB550A
:10240000DD4F6881C55AD240CA55DD4F9881C65A02
:10241000D240C955DD4F8881C75AD240272F362F69
:10242000492F582F612F702F8F2D9E2D0E94982499
:10243000262F372F482F592FC254DD4F6881CE5B8E
:10244000D240C154DD4F7881CF5BD240C054DD4FC4
:102450008881C05CD240CF53DD4F9881C15CD240AF
:102460000E94A121C254DD4F6883CE5BD240C1548B
:10247000DD4F7883CF5BD240C054DD4F8883C05C92
:10248000D240CF53DD4F9883C15CD240CB56DD4F55
:102490007881C559D240C756DD4F6881C959D240AD
:1024A000C556DD4F9881CB59D240C456DD4F888147
:1024B000CC59D240272F362F492F582F612F702FFC
:1024C0008F2D9E2D0E949824262F372F482F592F6D
:1024D000CE53DD4F6881C25CD240CD53DD4F788151
:1024E000C35CD240CC53DD4F8881C45CD240CB5317
:1024F000DD4F9881C55CD2400E94A121CE53DD4FB3
:102500006883C25CD240CD53DD4F7883C35CD24038
:10251000CC53DD4F8883C45CD240CB53DD4F9883CE
:10252000C55CD240C256DD4F7881CE59D240C056EC
:10253000DD4F6881C05AD240CE55DD4F9881C25AD6
:10254000D240CD55DD4F8881C35AD240272F362F38
:10255000492F582F612F702F8F2D9E2D0E94982468
:10256000262F372F482F592FCA53DD4F6881C65C5D
:10257000D240C953DD4F7881C75CD240C853DD4F8C
:102580008881C85CD240C753DD4F9881C95CD24076
:102590000E94A121CA53DD4F6883C65CD240C95353
:1025A000DD4F7883C75CD240C853DD4F8883C85C59
:1025B000D240C753DD4F9883C95CD240212F302FC2
:1025C0004F2D5E2DC755DD4FB881C95AD240C65533
:1025D000DD4FA881CA5AD240C555DD4FF881CB5A8C
:1025E000D240C455DD4FE881CC5AD2406B2F7A2FB0
:1025F0008F2F9E2F0E949824262F372F482F592F38
:10260000C653DD4F6881CA5CD240CD52DD4F788120
:10261000C35DD240CC52DD4F8881C45DD240CB52E5
:10262000DD4F9881C55DD2400E94A121C653DD4F88
:102630006883CA5CD240CD52DD4F7883C35DD240FF
:10264000CC52DD4F8883C45DD240CB52DD4F98839E
:10265000C55DD2400F2EF8EAAF2EF2E0BF2EF02D6E
:102660000F2EF8EA8F2EF3E09F2EF02DC855DD4F88
:102670001881C85AD24000E0CF56DD4F1882C159A8
:10268000D240CD56DD4F1882C359D240CB56DD4FD4
:102690001882C559D240712C612C1301C756DD4FE9
:1026A00059824882C959D240502EF401A191B1916A
:1026B0004F01F501419151915F019D010E946025FB
:1026C0006B017C019A01DA010E9460256C0D7D1D71
:1026D0008E1D9F1D0E94F4220E940B25D62EE72EF0
:1026E000F82E092F262F372F482F592F672D762D9B
:1026F000832D922D0E94A121762E672E382E292E11
:10270000612F70E080E090E00E94F4222D2D3E2D9C
:102710004F2D502F0E949824262F372F482F592FA6
:10272000CF56DD4FA881C159D240CD56DD4FF8813B
:10273000C359D240CB56DD4FE881C559D240652DF3
:102740007A2F8F2F9E2F0E94A121562ECF56DD4F1C
:102750007883C159D240CD56DD4F8883C359D240CA
:10276000CB56DD4F9883C559D2401F5F103409F016
:102770009CCF062FC756DD4F48805980C959D2409B
:1027800027E73CEC4BE252E3672D762D832D922D0B
:102790000E94A121262F372F482F592FCF56DD4FCA
:1027A000A881C159D240CD56DD4FF881C359D240DE
:1027B000CB56DD4FE881C559D240602F7A2F8F2F3D
:1027C0009E2F0E94122220E030E040E85CE30E944D
:1027D0009824262F372F482F592FCA52DD4F688152
:1027E000C65DD240C952DD4F7881C75DD240C85224
:1027F000DD4F8881C85DD240C752DD4F9881C95DE9
:10280000D2400E94A121CA52DD4F6883C65DD240EA
:10281000C952DD4F7883C75DD240C852DD4F8883EF
:10282000C85DD240C752DD4F9883C95DD240912C1C
:10283000812C34015301C451DD4F08811981CC5ED4
:10284000D2401301F201A191B1912F01F801419100
:1028500051918F019D010E9460256B017C019A01BD
:10286000DA010E9460256C0D7D1D8E1D9F1D0E944A
:10287000F4220E940B2527E73CEC4BE252E30E9436
:10288000A121C62ED72EE82EF92E0E941C24262F19
:10289000372F482F592F622D732D8B2D9A2D0E9483
:1028A000A121262E372EB82EA92E2C2D3D2D4E2DB2
:1028B0005F2D692D782D872D962D0E94A121962EB2
:1028C000872E782E692EF8E24F16F4E05F0609F0A5
:1028D000B9CF20E030E040E85CE3622D732D8B2D12
:1028E0009A2D0E9498240E948C22162F072FF82ED2
:1028F000E92E20E030E040E85CE3692D782D872D5B
:10290000962D0E94982427E73CEC4BE252E30E946C
:10291000A121262F372F482F592F612F702F8F2D50
:102920009E2D0E941222262F372F482F592FC65234
:10293000DD4F6881CA5DD240C552DD4F7881CB5DE5
:10294000D240C452DD4F8881CC5DD240C352DD4FAE
:102950009881CD5DD2400E94A121C652DD4F68838F
:10296000CA5DD240C552DD4F7883CB5DD240C452A0
:10297000DD4F8883CC5DD240C352DD4F9883CD5D5F
:10298000D240C654DD4F08811981CA5BD240005441
:102990001109C654DD4F19830883CA5BD240C45461
:1029A000DD4F08811981CC5BD24000541109C45419
:1029B000DD4F19830883CC5BD240CD54DD4F0881B5
:1029C0001981C35BD240005C1F4FCD54DD4F19838A
:1029D0000883C35BD240C251DD4F28813981CE5E6E
:1029E000D24002171307E1F0CD54DD4FA880B98023
:1029F000C35BD24030E8A31AB108C654DD4F6880EB
:102A00007980CA5BD240C454DD4F88809980CC5B0A
:102A1000D240CD54DD4FC880D980C35BD2405EC95F
:102A2000C754DD4F0881C95BD240602F70E080E061
:102A300090E00E94F422262F372F482F592F60E074
:102A400070E080E89FE30E941222162F072FF82ED5
:102A5000E92E262F372F482F592FC254DD4F68817A
:102A6000CE5BD240C154DD4F7881CF5BD240C054A1
:102A7000DD4F8881C05CD240CF53DD4F9881C15C6F
:102A8000D2400E949824C754DD4F6883C95BD2406E
:102A9000C654DD4F7883CA5BD240C454DD4F88836F
:102AA000CC5BD240C254DD4F9883CE5BD240212F05
:102AB000302F4F2D5E2DCE53DD4F6881C25CD2404A
:102AC000CD53DD4F7881C35CD240CC53DD4F88813C
:102AD000C45CD240CB53DD4F9881C55CD2400E948C
:102AE0009824C154DD4F6883CF5BD240C054DD4F82
:102AF0007883C05CD240CF53DD4F8883C15CD24025
:102B0000CE53DD4F9883C25CD240212F302F4F2D02
:102B10005E2DCA53DD4F6881C65CD240C953DD4F7C
:102B20007881C75CD240C853DD4F8881C85CD240F1
:102B3000C753DD4F9881C95CD2400E949824CD5381
:102B4000DD4F6883C35CD240CC53DD4F7883C45CD7
:102B5000D240CB53DD4F8883C55CD240CA53DD4F92
:102B60009883C65CD240212F302F4F2D5E2DC65347
:102B7000DD4F6881CA5CD240CD52DD4F7881C35DA4
:102B8000D240CC52DD4F8881C45DD240CB52DD4F64
:102B90009881C55DD2400E949824C953DD4F688357
:102BA000C75CD240C853DD4F7883C85CD240C7535E
:102BB000DD4F8883C95CD240C653DD4F9883CA5C21
:102BC000D240CA52DD4F2881C65DD240C952DD4F86
:102BD0003881C75DD240C852DD4F4881C85DD240C0
:102BE000C752DD4F5881C95DD240612F702F8F2DA4
:102BF0009E2D0E949824CD52DD4F6883C35DD24044
:102C0000CC52DD4F7883C45DD240CB52DD4F8883F8
:102C1000C55DD240CA52DD4F9883C65DD240C652D0
:102C2000DD4F2881CA5DD240C552DD4F3881CB5D72
:102C3000D240C452DD4F4881CC5DD240C352DD4FFB
:102C40005881CD5DD240612F702F8F2D9E2D0E9417
:102C50009824C952DD4F6883C75DD240C852DD4F0A
:102C60007883C85DD240C752DD4F8883C95DD240AA
:102C7000C652DD4F9883CA5DD240C954DD4FE8800B
:102C8000F980C75BD240F394C954DD4F08811981A4
:102C9000C75BD240B0E0A0E06D01F8012191319115
:102CA000419151918F016B2F7A2F8D2D9C2D0E9478
:102CB000A121B62FA72FD82EC92EE016F10669F74D
:102CC0002AE939E949E55FE30E949824D62EC72E08
:102CD000B82EA92E10E000E07801C855DD4F98808D
:102CE000C85AD240C954DD4F68807980C75BD24052
:102CF000D3012D913D914D915D91612F702F8F2DBD
:102D00009E2D0E94A121162F072FF82EE92E262F87
:102D1000372F482F592F6D2D7C2D8B2D9A2D0E94EA
:102D20000D22811579F074F0B4E06B0E711C939450
:102D3000E0E49E12DDCF0FE3C855DD4F0883C85A8B
:102D4000D24005C0C855DD4F9882C85AD240C855F8
:102D5000DD4F1881C85AD240612F70E080E090E0CA
:102D60000E94F42220E030E040E85CE30E949824D6
:102D7000C954DD4F6883C75BD240C552DD4F7883AD
:102D8000CB5DD240C452DD4F8883CC5DD240C3526C
:102D9000DD4F9883CD5DD240CF54DD4F0881C15BBC
:102DA000D240C055DD4F1881C05BD240011708F4F6
:102DB00054C1CB54DD4FC880D980C55BD240CC0C08
:102DC000DD1CCC0CDD1C21E030E02C0F3D1FC20EC1
:102DD000D31E802F811BCB54DD4F08811981C55B29
:102DE000D240080F111DC801880F991F880F991F25
:102DF000590114E0A10EB11CA80EB91E8601612C68
:102E0000712C4301D8012D913D914D915D918D0122
:102E1000662D772D882D992D0E94A121662E772E63
:102E2000882E992EA016B10669F727E73CEC4BE2F5
:102E300052E30E94CD23811509F00CF423C1512CDB
:102E4000412C120103C0AC14BD04A1F1F601619143
:102E50007191819191916F01262D372D482D592D1A
:102E60000E941222162F072FF82EE92E27E73CEC9E
:102E70004BE252E30E94CD23811529F324F3612F05
:102E8000702F8F2D9E2D0E941C24212F302F4F2D0F
:102E90005E2D0E949824262F372F482F592F652DFD
:102EA000742D832D922D0E94A021562E472E382E50
:102EB000292EC9CFCE54DD4F0881C25BD240602F8E
:102EC00070E080E090E00E94F4220E941C24262FF3
:102ED000372F482F592F652D742D832D922D0E9449
:102EE0001222CB56DD4F6883C559D240C756DD4FFD
:102EF0007883C959D240C556DD4F8883CB59D2401B
:102F0000C456DD4F9883CC59D240C154DD4F28813F
:102F1000CF5BD240C054DD4F3881C05CD240CF532C
:102F2000DD4F4881C15CD240CE53DD4F5881C25C39
:102F3000D240C754DD4F6881C95BD240C654DD4FD3
:102F40007881CA5BD240C454DD4F8881CC5BD240CB
:102F5000C254DD4F9881CE5BD2400E94A12127E769
:102F60003CEC4BE252E30E94A121162F072FF82ED2
:102F7000E92EC953DD4F2881C75CD240C853DD4FCD
:102F80003881C85CD240C753DD4F4881C95CD2400C
:102F9000C653DD4F5881CA5CD240CD53DD4F6881A6
:102FA000C35CD240CC53DD4F7881C45CD240CB535C
:102FB000DD4F8881C55CD240CA53DD4F9881C65C25
:102FC000D2400E94A12127E73CEC4BE252E30E9451
:102FD000A121262F372F482F592F612F702F8F2D8A
:102FE0009E2D0E941222C451DD4F6883CC5ED240D8
:102FF000C251DD4F7883CE5ED240C051DD4F888311
:10300000C05FD240CE50DD4F9883C25FD240C055E2
:10301000DD4FE880C05BD240E394CF54DD4F188190
:10302000C15BD2401E1508F469C0CB54DD4F8881C6
:103030009981C55BD240880F991F880F991F01E0C5
:1030400010E00C0F1D1F0C5F1F4F080F191FC055FC
:10305000DD4FF880C05BD24034C0CB56DD4F1882C4
:10306000C559D240C756DD4F1882C959D240C556FE
:10307000DD4F1882CB59D240C456DD4F1882CC594F
:10308000D24043CFCB56DD4F1882C559D240C756E8
:10309000DD4F1882C959D240C556DD4F1882CB5931
:1030A000D240C456DD4F1882CC59D2402ECF81E099
:1030B0008E0DCF54DD4F3881C15BD2403E1519F1E2
:1030C000E82ED8016D917D918D919D918D01EF2D0F
:1030D000F0E0EE0FFF1FEE0FFF1F21E030E02C0F9E
:1030E0003D1FE20FF31F20813181428153810E94F5
:1030F000CD238115E1F2DCF2FE2CD9CFC055DD4F96
:10310000F880C05BD2406F2D70E0CB54DD4F08815A
:103110001981C55BD240601B710B072E000C880B18
:10312000990B0E94F622E62E172F082FF92EC65172
:10313000DD4F68817981CA5ED24061507109072EE6
:10314000000C880B990B0E94F622262F372F482F50
:10315000592F6E2D712F802F9F2D0E941222C65144
:10316000DD4F6883CA5ED240CD50DD4F7883C35FA8
:10317000D240CC50DD4F8883C45FD240CB50DD4F6E
:103180009883C55FD240CE54DD4F1881C25BD240D8
:103190006894662461F8183018F0612E669466947D
:1031A000CB54DD4F88809980C55BD240880C991C38
:1031B000880C991C22242394312C2C0E3D1E280CA3
:1031C000391C062D10E0C455DD4F39822882CC5AB7
:1031D000D240412C512CC855DD4F1882C85AD240DC
:1031E000C755DD4F1882C95AD240C655DD4F1882E7
:1031F000CA5AD240C555DD4F1882CB5AD240CC5561
:10320000DD4F1882C45AD240CB55DD4F1882C55AC3
:10321000D240CA55DD4F1882C65AD240C955DD4F3B
:103220001882C75AD240C256DD4F1882CE59D240BA
:10323000C056DD4F1882C05AD240CE55DD4F18829D
:10324000C25AD240CD55DD4F1882C35AD240CF5614
:10325000DD4F1882C159D240CD56DD4F1882C35977
:10326000D240712CA12CCA50DD4F39822882C65F12
:10327000D240C850DD4F99828882C85FD240C45581
:10328000DD4FA881B981CC5AD240CD90DD90ED9030
:10329000FD90C455DD4FB983A883CC5AD240B2010A
:1032A000052C000C880B990B0E94F622CE54DD4FA2
:1032B0006883C25BD240CD54DD4F7883C35BD2407C
:1032C000282E892E262F372F482F592FCF56DD4FE6
:1032D0006881C159D240CD56DD4F7881C359D24063
:1032E000872D9A2D0E94A121CF56DD4F6883C159A9
:1032F000D240CD56DD4F7883C359D240782EA92EC7
:10330000A7019601C256DD4F6881CE59D240C05602
:10331000DD4F7881C05AD240CE55DD4F8881C25AE8
:10332000D240CD55DD4F9881C35AD2400E94A12191
:10333000C256DD4F6883CE59D240C056DD4F7883E8
:10334000C05AD240CE55DD4F8883C25AD240CD55A7
:10335000DD4F9883C35AD240642D70E080E090E046
:103360000E94F422C650DD4F6883CA5FD240B72E58
:10337000382E992E262F372F482F592FCE54DD4F18
:103380006881C25BD240CD54DD4F7881C35BD240AF
:10339000822D982D0E949824262F372F482F592FA1
:1033A000CC55DD4F6881C45AD240CB55DD4F788172
:1033B000C55AD240CA55DD4F8881C65AD240C95538
:1033C000DD4F9881C75AD2400E94A121CC55DD4FD4
:1033D0006883C45AD240CB55DD4F7883C55AD2405A
:1033E000CA55DD4F8883C65AD240C955DD4F9883F0
:1033F000C75AD240A7019601C650DD4F6881CA5F07
:10340000D2407B2D832D992D0E949824262F372F73
:10341000482F592FC855DD4F6881C85AD240C7552B
:10342000DD4F7881C95AD240C655DD4F8881CA5ACE
:10343000D240C555DD4F9881CB5AD2400E94A12180
:10344000C855DD4F6883C85AD240C755DD4F7883D1
:10345000C95AD240C655DD4F8883CA5AD240C55595
:10346000DD4F9883CB5AD240BFEF4B1A5B0A04154D
:10347000150509F004CFCA50DD4F28803980C65F9A
:10348000D240C850DD4F88809980C85FD240662DF9
:1034900070E080E090E00E94F422662E172F082F43
:1034A000B92ECC55DD4F2881C45AD240CB55DD4FC3
:1034B0003881C55AD240CA55DD4F4881C65AD240DC
:1034C000C955DD4F5881C75AD2400E949824F62E24
:1034D000E72ED82EC92ECF56DD4F2881C159D240B4
:1034E000CD56DD4F3881C359D240472D5A2DCF5686
:1034F000DD4F6881C159D240CD56DD4F7881C35927
:10350000D240872D9A2D0E949824262F372F482F9E
:10351000592F6F2D7E2D8D2D9C2D0E94A021C62E02
:10352000D72EE82EF92EC701B6019F772FEF36EE82
:103530004BED5EE20E94CD23811509F00CF4C7C16A
:10354000C855DD4F2881C85AD240C755DD4F388154
:10355000C95AD240C655DD4F4881CA5AD240C555D6
:10356000DD4F5881CB5AD240662D712F802F9B2D75
:103570000E949824662E172F082FB92EC256DD4FB1
:103580002881CE59D240C056DD4F3881C05AD24032
:10359000CE55DD4F4881C25AD240CD55DD4F5881BE
:1035A000C35AD240CF56DD4F6881C159D240CD5663
:1035B000DD4F7881C359D240872D9A2D0E949824DF
:1035C000E62F2E2F372F482F592F662D712F802F42
:1035D0009B2D0E94A021A70196010E941222E62E97
:1035E000172F082FF92E27E73CEC4BE252E3C1538B
:1035F000DD4F6881CF5CD240C053DD4F7881C05D24
:10360000D240CF52DD4F8881C15DD240CE52DD4FD6
:103610009881C25DD2400E94A121E62F2E2F372F24
:10362000482F592F6E2D712F802F9F2D0E9412220F
:10363000CF56DD4F6883C159D240CD56DD4F7883D8
:10364000C359D240C256DD4F8883CE59D240C056AE
:10365000DD4F9883C05AD240CF54DD4F0881C15B03
:10366000D240C055DD4F1881C05BD240011708F42D
:1036700033C109EC10E00C0F1D1F080D191DCF54AC
:10368000DD4F8881C15BD240C055DD4F2881C05BD2
:10369000D240821BCB54DD4F28813981C55BD2409B
:1036A000280F311D220F331F220F331FEE24E39406
:1036B000F12CEC0EFD1E44E0E40EF11CE20EF31EB4
:1036C000A12C912C812CCD55DD4F1882C35AD240AC
:1036D000D1016D917D918D919D911D01F8014190D8
:1036E0005190619071908F01C153DD4F2881CF5C63
:1036F000D240C053DD4F3881C05DD240CF52DD4F44
:103700004881C15DD240CE52DD4F5881C25DD2406A
:103710000E94A021CE55DD4F6883C25AD240B72EF9
:10372000C82ED92EC252DD4F2881CE5DD240C15263
:10373000DD4F3881CF5DD240C052DD4F4881C05E41
:10374000D240CF51DD4F5881C15ED240C301B2019A
:103750000E94A021262F372F482F592FCE55DD4FFD
:103760006881C25AD2407B2D8C2D9D2D0E949824B9
:10377000262F372F482F592F6A2D792D882DCD557B
:10378000DD4F9881C35AD2400E94A121A62E972EC8
:10379000882ECD55DD4F9883C35AD2402E143F0456
:1037A00009F096CFD92E27E73CEC4BE252E3CE51FD
:1037B000DD4F6881C25ED240CD51DD4F7881C35E5E
:1037C000D240CC51DD4F8881C45ED240CB51DD4F19
:1037D0009881C55ED2400E94CD23811509F00CF47A
:1037E00080C027E73CEC4BE252E3CA51DD4F6881D1
:1037F000C65ED240C951DD4F7881C75ED240C85104
:10380000DD4F8881C85ED240C751DD4F9881C95EC7
:10381000D2400E94CD23811509F00CF40BC2C55390
:10382000DD4F2881CB5CD240C453DD4F3881CC5C66
:10383000D240C353DD4F4881CD5CD240C253DD4FEF
:103840005881CE5CD2406A2D792D882D9D2D0E9405
:103850001222E62E172F082FF92ECA51DD4F28818C
:10386000C65ED240C951DD4F3881C75ED240C851D3
:10387000DD4F4881C85ED240C751DD4F5881C95ED7
:10388000D240CE51DD4F6881C25ED240CD51DD4F76
:103890007881C35ED240CC51DD4F8881C45ED24076
:1038A000CB51DD4F9881C55ED2400E949824E62F0F
:1038B0002E2F372F482F592F6E2D712F802F9F2D90
:1038C0000E941222462F372F282F892F0EC0E12C5D
:1038D00010E000E0F12C87CEA12C912C812CD12C72
:1038E00062CF40E030E020E080E0C153DD4FC8808F
:1038F000CF5CD240C053DD4FD880C05DD240CF52A4
:10390000DD4FE880C15DD240CE52DD4FF880C25D10
:10391000D240C255DD4FA881B981CE5AD240CD9256
:10392000DD92ED92FD921497CE51DD4FC880C25EBC
:10393000D240CD51DD4FD880C35ED240CC51DD4F57
:10394000E880C45ED240CB51DD4FF880C55ED240E6
:10395000FD01C482D582E682F782C252DD4FC88063
:10396000CE5DD240C152DD4FD880CF5DD240C05233
:10397000DD4FE880C05ED240CF51DD4FF880C15EA0
:10398000D2401896CD92DD92ED92FD921C97CA51CD
:10399000DD4FC880C65ED240C951DD4FD880C75EBA
:1039A000D240C851DD4FE880C85ED240C751DD4FDC
:1039B000F880C95ED240FD01C486D586E686F786CA
:1039C000C754DD4FC880C95BD240C654DD4FD88094
:1039D000CA5BD240C454DD4FE880CC5BD240C254B5
:1039E000DD4FF880CE5BD2405096CD92DD92ED92C5
:1039F000FD925497C154DD4FC880CF5BD240C05474
:103A0000DD4FD880C05CD240CF53DD4FE880C15C31
:103A1000D240CE53DD4FF880C25CD240FD01C48A53
:103A2000D58AE68AF78ACD53DD4FC880C35CD24081
:103A3000CC53DD4FD880C45CD240CB53DD4FE880FF
:103A4000C55CD240CA53DD4FF880C65CD240589660
:103A5000CD92DD92ED92FD925C97C953DD4FC88007
:103A6000C75CD240C853DD4FD880C85CD240C75332
:103A7000DD4FE880C95CD240C653DD4FF880CA5C98
:103A8000D240FD01C48ED58EE68EF78ECD52DD4F2D
:103A9000C880C35DD240CC52DD4FD880C45DD240D7
:103AA000CB52DD4FE880C55DD240CA52DD4FF88071
:103AB000C65DD2409096CD92DD92ED92FD929497A4
:103AC000C952DD4FC880C75DD240C852DD4FD88093
:103AD000C85DD240C752DD4FE880C95DD240C652B2
:103AE000DD4FF880CA5DD240FD01C4A2D5A2E6A296
:103AF000F7A2CB56DD4FC880C559D240C756DD4F1F
:103B0000D880C959D240C556DD4FE880CB59D24044
:103B1000C456DD4FF880CC59D2409896CD92DD92B4
:103B2000ED92FD929C97C451DD4FC880CC5ED2408F
:103B3000C251DD4FD880CE5ED240C051DD4FE8800B
:103B4000C05FD240CE50DD4FF880C25FD240FD0151
:103B5000C4A6D5A6E6A6F7A6C651DD4FC880CA5EA4
:103B6000D240CD50DD4FD880C35FD240CC50DD4F26
:103B7000E880C45FD240CB50DD4FF880C55FD240B3
:103B8000D096CD92DD92ED92FD92D497CF56DD4F37
:103B9000C880C159D240CD56DD4FD880C359D240DC
:103BA000C256DD4FE880CE59D240C056DD4FF88076
:103BB000C05AD240FD01C4AAD5AAE6AAF7AAC42ECB
:103BC000D32EE22EF82ED896CD92DD92ED92FD9274
:103BD000C954DD4F8881C75BD240C552DD4F988103
:103BE000CB5DD240C452DD4FA881CC5DD240C352E0
:103BF000DD4FB881CD5DD24084AF95AFA6AFB7AFF2
:103C0000C650DD4F0FB6F894DEBF0FBECDBFDF91BB
:103C1000CF911F910F91FF90EF90DF90CF90BF90C9
:103C2000AF909F908F907F906F905F904F903F905C
:103C30002F90089540E030E020E080E056CE1F5FF6
:103C4000FFEFCF1ADF0A0C94B50895B3937C95BBB0
:103C500080FDAA9A81FDAB9A82FDAC9A83FDAD9A54
:103C6000A99A84E08A95F1F7A99888EB8A95F1F7EB
:103C700000000895CF93C82FA89882958F700E9456
:103C8000251E8C2F8F700E94251E83E98A95F1F7DF
:103C900000C0CF910895CF93C82FA89A82958F70B6
:103CA0000E94251E8C2F8F700E94251E83E98A9505
:103CB000F1F700C0CF91089584B38F6384BB85B3BF
:103CC000807C85BB2FEF8FEA91E0215080409040AF
:103CD000E1F700C00000A89883E00E94251E8FEF46
:103CE00095E30197F1F700C0000083E00E94251ED4
:103CF0008EE991E00197F1F700C083E00E94251E54
:103D00008EE991E00197F1F700C082E00E94251E44
:103D100088E20E943A1E8CE00E943A1E86E00E94D1
:103D20003A1E81E00E943A1E89E995E10197F1F778
:103D300000C0089581E00E943A1E89E995E101974B
:103D4000F1F700C00895CF93DF93C82FD92F888152
:103D5000811531F021960E944B1E89918111FBCF74
:103D6000DF91CF910895CF93DF93C82F89E2C89F49
:103D7000812D112482958F70805D0E9441208DECF1
:103D8000C89FD12D1124D695D695D695D89F812D33
:103D90001124869586958695982F990F990F890FEE
:103DA000880F9D2F981B892F805D0E9441208D2FA9
:103DB000880F880F8D0F880FC81B8C2F805D0E9485
:103DC0004120DF91CF910895CDB7DEB7CA54D10914
:103DD0000FB6F894DEBF0FBECDBF0E94392080E63B
:103DE00090E00E9445200E94A9200E9448060E945F
:103DF0005C1EB898C09A78940E9450068FE790E0B5
:103E00000E9445200E949A1E84EB90E00E94A31E0F
:103E1000DD24DA94CEC00E949E0685E291E00E94E5
:103E2000452080916202909163020E94552080910A
:103E30006002811108C08DE592E00E944520FD2CB2
:103E400000E010E010C084E391E00E9445208091E2
:103E5000600290E00E945520EECF0F5F1F4F0034AC
:103E60009FE1190751F0C8010E942A218F1508F41B
:103E7000F82EE81690F7E82EF0CF80E491E00E944B
:103E800045208F2D0E94B31E8FE491E00E944520B3
:103E90008E2D0E94B31E83E591E00E9445208E2D59
:103EA0008F19990B8C010E9455208DE591E00E949D
:103EB000452081E691E00E944520E12CF12CC701CC
:103EC0000E942A210E94B31E80E20E9441209FEF9F
:103ED000E91AF90A24E1E216F10489F78DE592E086
:103EE0000E9445200A3011050CF4BEC081EA91E021
:103EF0000E9445200E949A1E8AEB91E00E94A31E18
:103F0000CE0101960E94540888EC91E00E94452061
:103F100089ED91E00E944520CE0101960E94E806BD
:103F2000082F10E0F801EE0FFF1FEC56FE4F6591D1
:103F30007591CE018F5B9F4F0E94B9250E949A1EFA
:103F4000CE018F5B9F4F0E94A31E8AEE91E00E94DC
:103F50004520CE018F5B9F4F0E94452085EF91E069
:103F60000E944520C8010E9455208DE591E00E94E5
:103F700045208FEF9FE723E4815090402040E1F7F8
:103F800000C00000B09BFECF8FEF9FEB26E081507A
:103F900090402040E1F700C000000E949A1E84EB90
:103FA00090E00E94A31E8FEF9BE60197F1F700C0FF
:103FB0000000B099F8CF22E383E091E021508040E7
:103FC0009040E1F700C000C086B380FBEE24E0F82B
:103FD00080FDEFCFB09BFECF22E383E091E0215044
:103FE00080409040E1F700C000C081EC90E00E946A
:103FF000452087ED90E00E9445200E949A1E81EFA7
:1040000090E00E94A31E0E94CC060DED15E00E94D8
:10401000DE06811100CF0E949E068CEC9AE001978B
:10402000F1F700C00000015011090115110579F7E1
:10403000109261028EEF90E00E9445200E949A1E2D
:104040008AE191E00E94A31E9FEF2FE982E3915045
:1040500020408040E1F700C000000E949A1E84EBDF
:1040600090E00E94A31EA5CF8CE691E00E9445201F
:104070003DCF10BC85E089B988E08AB986E880BD6B
:1040800008955D9BFECF8CB90895CF93DF93C82F21
:10409000D92F8881811531F021960E944120899184
:1040A0008111FBCFDF91CF910895EF92FF920F9393
:1040B0001F93CF93DF9300D000D000D0CDB7DEB7F1
:1040C000482F592F1E828E010A5F1F4F9A01ADECB7
:1040D000BCEC0E9468259C0136952795369527955E
:1040E00036952795C901880F991F880F991F820F50
:1040F000931F880F991FFA01E81BE05DD801EE932A
:104100008D017A019A01ADECBCEC0E946825AC01EE
:10411000569547955695479556954795BAE0EB16AF
:10412000F104A0F60F5F1F4F8E2F0E944120D8018F
:10413000ED918D01E111F8CF0F900F900F900F903E
:104140000F900F90DF91CF911F910F91FF90EF9003
:10415000089581B3886C81BB969A979A93988AB395
:104160008E6F8ABB8A9A8AB38E6F8ABB8A9A87B30C
:104170008E6187BB81B3806381BB84B3806C84BB59
:104180008DEF91E00E94452082E192E00E9445205F
:1041900088E392E00E9445200895282F392F8AB3A2
:1041A0008E6F8ABB8A9A87B38E6187BB81B3806327
:1041B00081BB84B3806C84BB8BB38170922F990FC9
:1041C000892B8BBB27FF3CC0929A87E08A95F1F739
:1041D00000C0939A87E08A95F1F700C0939887E032
:1041E0008A95F1F700C09BB3832F880F9170892BBC
:1041F0008BBB87E08A95F1F700C098B3262F862FF6
:10420000880F8E71917E892B88BB64FF1BC0949AA6
:1042100065FF1AC0959A66FF19C0AE9A2115C4F0C1
:10422000AF9887E08A95F1F700C0969882E18A9569
:10423000F1F700C0969A87E08A95F1F700C00895DB
:104240009298C3CF9498E4CF9598E5CFAE98E6CFF7
:10425000AF9AE7CF282F392F8AB38E6F8ABB8A9AFD
:1042600087B38E6187BB81B3806381BB84B3806C6D
:1042700084BB8BB38170922F990F892B8BBB27FF47
:104280005BC0929A87E08A95F1F700C0939A97E015
:104290009A95F1F700C0939887E08A95F1F700C0EE
:1042A0009BB3832F880F9170892B8BBB97E09A95D6
:1042B000F1F700C08AB381708ABB81B38B7C81BB6C
:1042C00087B3817E87BB84B38F7384BB8BB38170CC
:1042D0008BBB82B38B7C82BB88B3817E88BB85B36A
:1042E0008F7385BB87E08A95F1F700C0979892E1BC
:1042F0009A95F1F700C026B330E0359527952F70D9
:10430000822F84998061859980629E9980649F99AB
:1043100015C0979A97E09A95F1F700C09AB39E6FEF
:104320009ABB8A9A97B39E6197BB91B3906391BBF6
:1043300094B3906C94BB08959298A4CF8068E9CF11
:104340005058BB27AA270E94B8210C9493230E949F
:10435000852338F00E948C2320F039F49F3F19F414
:1043600026F40C945B230EF4E095E7FB0C945523A4
:10437000E92F0E94A42358F3BA1762077307840732
:10438000950720F079F4A6F50C94C6230EF4E09579
:104390000B2EBA2FA02D0B01B90190010C01CA01FF
:1043A000A0011124FF27591B99F0593F50F4503EAA
:1043B00068F11A16F040A22F232F342F4427585F9C
:1043C000F3CF469537952795A795F0405395C9F7B4
:1043D0007EF41F16BA0B620B730B840BBAF091506C
:1043E000A1F0FF0FBB1F661F771F881FC2F70EC00B
:1043F000BA0F621F731F841F48F4879577956795DE
:10440000B795F7959E3F08F0B0CF9395880F08F0C9
:104410009927EE0F9795879508950E94312308F408
:1044200081E008950E9426220C9493230E948C23FD
:1044300058F00E94852340F029F45F3F29F00C9446
:10444000552351110C94C7230C945B230E94A42381
:1044500068F39923B1F3552391F3951B550BBB27B3
:10446000AA2762177307840738F09F5F5F4F220FF8
:10447000331F441FAA1FA9F335D00E2E3AF0E0E8EF
:1044800032D091505040E695001CCAF72BD0FE2F39
:1044900029D0660F771F881FBB1F261737074807CD
:1044A000AB07B0E809F0BB0B802DBF01FF27935885
:1044B0005F4F3AF09E3F510578F00C9455230C94D1
:1044C000C7235F3FE4F3983ED4F3869577956795CD
:1044D000B795F7959F5FC9F7880F911D96958795BA
:1044E00097F90895E1E0660F771F881FBB1F6217D9
:1044F00073078407BA0720F0621B730B840BBA0B97
:10450000EE1F88F7E095089529F416F00C945523D2
:104510000C94C6230C945B230E94AC23A8F396381A
:10452000A0F707F80F92E8942BE33AEA48EB5FE72D
:104530000E94AE240F920F920F924DB75EB70F926A
:104540000E946424E4E8FBE40E945E234F915F91A3
:10455000EF91FF91E595EE1FFF1F49F0FE57E068D0
:104560004427EE0F441FFA95E1F74195550B0E9441
:10457000DE230F9007FE0C94D22308950E94C522DB
:104580006894B1110C94C72308950E94AC2388F05D
:104590009F5798F0B92F9927B751B0F0E1F0660F07
:1045A000771F881F991F1AF0BA95C9F714C0B13048
:1045B00091F00E94C623B1E008950C94C623672FA2
:1045C000782F8827B85F39F0B93FCCF38695779577
:1045D0006795B395D9F73EF4909580957095619560
:1045E0007F4F8F4F9F4F0895E89409C097FB3EF48B
:1045F00090958095709561957F4F8F4F9F4F992330
:10460000A9F0F92F96E9BB279395F69587957795AD
:104610006795B795F111F8CFFAF4BB0F11F460FF6D
:104620001BC06F5F7F4F8F4F9F4F16C0882311F0C5
:1046300096E911C0772321F09EE8872F762F05C0D9
:10464000662371F096E8862F70E060E02AF09A9574
:10465000660F771F881FDAF7880F9695879597F969
:104660000895990F0008550FAA0BE0E8FEEF161603
:104670001706E807F907C0F012161306E407F50756
:1046800098F0621B730B840B950B39F40A2661F0CA
:10469000232B242B252B21F408950A2609F4A1406D
:1046A000A6958FEF811D811D089597F99F6780E87A
:1046B00070E060E008959FEF80EC0895DF93CF9362
:1046C0001F930F93FF92EF92DF927B018C0168940E
:1046D00006C0DA2EEF010E94AB24FE01E894A591FA
:1046E0002591359145915591A6F3EF010E94B8218E
:1046F000FE019701A801DA9469F7DF90EF90FF902F
:104700000F911F91CF91DF91089500240A941616FE
:10471000170618060906089500240A9412161306AF
:10472000140605060895092E0394000C11F488233D
:1047300052F0BB0F40F4BF2B11F460FF04C06F5F59
:104740007F4F8F4F9F4F089557FD9058440F551F2F
:1047500059F05F3F71F04795880F97FB991F61F003
:104760009F3F79F087950895121613061406551F7A
:10477000F2CF4695F1DF08C0161617061806991FE6
:10478000F1CF86957105610508940895E894BB27DB
:1047900066277727CB0197F908950E94312308F403
:1047A0008FEF08959B01AC0160E070E080E89FE32B
:1047B0000C9412220C9455230C944B250E94AC238C
:1047C000D8F39923C9F3940F511DA3F3915050408E
:1047D00094F059F0882332F0660F771F881F9150AC
:1047E0005040C1F79E3F51052CF7880F911D9695BB
:1047F000879597F908955F3FACF0983E9CF0BB27F2
:10480000869577956795B79508F4B1609395C1F74C
:10481000BB0F58F711F460FFE8CF6F5F7F4F8F4FEA
:104820009F4FE3CF0C94C72316F00C944B250C94A8
:104830005B2368940C9455230E94AC23A8F399231E
:10484000C1F3AEF3DF93CF931F930F93FF92C92F62
:10485000DD2788232AF02197660F771F881FDAF754
:1048600020E030E040E85FEB9FE3883920F0803EB5
:1048700038F021968F770E94A121ECEAFBE404C076
:104880000E94A121E9EDFBE40E945E238B01BE01A1
:10489000EC01FB2E6F5771097595771F880B990BEB
:1048A0000E94F62228E132E741E35FE30E94AB2455
:1048B000AF2D9801AE01FF900F911F91CF91DF9125
:1048C0000E94B8210C949323FA01DC01AA0FBB1FAC
:1048D0009B01AC01BF5728F4222733274427507887
:1048E00020C0B75190F4AB2F0024469537952795FB
:1048F000011CA395D2F3002071F0220F331F441F37
:10490000B395DAF30ED00C94A02161307105A0E8C4
:104910008A07B94630F49B01AC01662777278827C0
:104920009078309621F02083318342835383089519
:104930000E94AB240C9493230E94852338F00E949C
:104940008C2320F0952311F00C9455230C945B23B9
:1049500011240C94C7230E94A42370F3959FC1F3E4
:10496000950F50E0551F629FF001729FBB27F00D1D
:10497000B11D639FAA27F00DB11DAA1F649F662772
:10498000B00DA11D661F829F2227B00DA11D621FC1
:10499000739FB00DA11D621F839FA00D611D221F7B
:1049A000749F3327A00D611D231F849F600D211D5F
:1049B000822F762F6A2F11249F5750409AF0F1F0E2
:1049C00088234AF0EE0FFF1FBB1F661F771F881F4B
:1049D00091505040A9F79E3F510580F00C9455230B
:1049E0000C94C7235F3FE4F3983ED4F38695779504
:1049F0006795B795F795E7959F5FC1F7FE2B880FF1
:104A0000911D9695879597F9089519F416F40C94CD
:104A10005B230C944B250E94AC23B8F39923C9F374
:104A2000B6F39F57550B87FF0E9459250024A0E637
:104A300040EA900180585695979528F4805C660F5F
:104A4000771F881F20F026173707480730F4621BAE
:104A5000730B840B202931294A2BA69517940794B0
:104A6000202531254A2758F7660F771F881F20F029
:104A700026173707480730F4620B730B840B200DA1
:104A8000311D411DA09581F7B901842F9158880FE0
:104A90009695879508959F3F31F0915020F4879522
:104AA00077956795B795880F911D9695879597F996
:104AB000089591505040660F771F881FD2F70895D0
:104AC0000E946825332312F48A1B9B0B0C948D25BE
:104AD000A29FB001B39FC001A39F700D811D11243F
:104AE000911DB29F700D811D1124911D089597FB9A
:104AF000072E16F4009407D077FD09D00E949A255E
:104B000007FC05D03EF4909581959F4F08957095D0
:104B100061957F4F08950E946825B7FF0895821B15
:104B2000930B0895B7FF0C94AE250E94AE25821B0F
:104B3000930B0895AA1BBB1B51E107C0AA1FBB1F03
:104B4000A617B70710F0A61BB70B881F991F5A9519
:104B5000A9F780959095BC01CD0108950E94682524
:104B6000A59F900DB49F900DA49F800D911D1124C1
:104B70000895FB01DC0105900D920020E1F70895F6
:104B8000F894FFCF07634236B79BD8A71A39685607
:104B900018AEBAAB558C1D3CB7CC5763BD6DEDFD5F
:104BA000753EF6177231BF000000803F080000001C
:104BB000BE922449123EABAAAA2ABECDCCCC4C3E12
:104BC00000000080BEABAAAAAA3E00000000BF0001
:104BD0000000803F0000000000084178D3BB4387FD
:104BE000D1133D190E3CC3BD4282AD2B3E68EC8211
:104BF00076BED98FE1A93E4C80EFFFBE01C4FF7F96
:064C00003F00000000006F
:104C06000D0A3D3D3D2053504545434820524543FE
:104C16004F474E4954494F4E203D3D3D0D0A0052E7
:104C2600656164792E20576F7264733A206F6E2027
:104C36006F66662073746172742073746F70206C73
:104C460065667420726967687420757020646F7772
:104C56006E0D0A00507265737320427574746F6E20
:104C6600000D0A2D2D2D205245434F5244494E47E3
:104C7600202D2D2D0D0A005265636F7264696E67D3
:104C86002E2E2E20737065616B206E6F77210D0AB4
:104C9600005265636F7264696E672E2E2E00455250
:104CA600524F523A205265636F7264696E67207480
:104CB600696D656F7574210D0A0052656320666122
:104CC600696C656400446F6E652E2053616D706C6F
:104CD60065733D0020204F564552464C4F573D00C8
:104CE60053616D706C652072616E67653A200020B5
:104CF6002D200020202872616E67653D00290D0A6F
:104D06000046697273742032303A20005741524E81
:104D1600494E473A2054696E792072616E67652064
:104D26002D206D6963206E6565647320444320629F
:104D3600696173206F7220707265616D702E0D0A45
:104D46000045787472616374696E67206665617484
:104D5600757265732E2E2E0D0A0050726F63657381
:104D660073696E672E2E2E004665617475726573C3
:104D760020646F6E652E0D0A00436C61737369665D
:104D860079696E672E2E2E0D0A004445544543540C
:104D960045443A20002020286964783D005352415A
:104DA6004D20496E697420636F6D706C6574650D76
:104DB6000A0044617461206275733A205042312DB5
:104DC6005042342C205044342D5044352C2050432E
:104DD600362D5043370D0A004345202870696E2052
:104DE600323029204D55535420626520636F6E6E14
:104DF600656374656420746F20474E44210D0A0074
:00000001FF
