:100000000C942A000C9447000C9447000C94470071
:100010000C9447000C9447000C9447000C945C002F
:100020000C9447000C9447000C9447000C94470034
:100030000C9447000C9447000C9447000C94470024
:100040000C9447000C9447000C9447000C94470014
:100050000C94470011241FBECFE5D8E0DEBFCDBF12
:1000600011E0A0E6B0E0E2ECF7E002C005900D92EE
:10007000A039B107D9F721E0A0E9B1E001C01D9294
:10008000A83DB207E1F70E94A8010C94DF030C948D
:10009000000080E687B986E886B9369A3699FECFA1
:1000A00008951FBC89E08EBD85E695E09BBD8ABDA5
:1000B00089B7806189BF08951F921FB61F921124CE
:1000C0002F938F939F93EF93FF93809191018115CD
:1000D00021F1809192019091930180349F4130F5FC
:1000E000369A3699FECF25B1809197018F5F8F7335
:1000F000909196019817E9F0E0919701F0E0E856A9
:10010000FE4F2083809397018091920190919301FB
:1001100001969093930180939201FF91EF919F91AB
:100120008F912F911F901FBE1F90189510929101D3
:10013000F4CF809190018F5F80939001E5CF9091F3
:10014000960180919701981739F12091940130918F
:10015000950120348FE13807F0F4E0919601F0E04A
:10016000E856FE4F6081909196019F5F9F73909338
:100170009601C9010E94FD02809194019091950120
:1001800001969093950180939401909196018091AE
:1001900097019813DACF089508951092950110925F
:1001A0009401109297011092960110929001109272
:1001B00093011092920181E0809391010895209122
:1001C00092013091930181E020343F4108F480E0B6
:1001D000089595B3937C95BB80FDAA9A81FDAB9A57
:1001E00082FDAC9A83FDAD9AA99A84E08A95F1F7D5
:1001F000A99888EB8A95F1F700000895CF93C82F4E
:10020000A89882958F700E94E9008C2F8F700E94B1
:10021000E90083E98A95F1F700C0CF910895CF9363
:10022000C82FA89A82958F700E94E9008C2F8F703A
:100230000E94E90083E98A95F1F700C0CF91089503
:1002400084B38F6384BB85B3807C85BB2FEF8FEA3B
:1002500091E0215080409040E1F700C00000A89854
:1002600083E00E94E9008FEF95E30197F1F700C06A
:10027000000083E00E94E9008EE991E00197F1F728
:1002800000C083E00E94E9008EE991E00197F1F758
:1002900000C082E00E94E90088E20E94FE008CE03B
:1002A0000E94FE0086E00E94FE0081E00E94FE00A7
:1002B00089E995E10197F1F700C0089581E00E9476
:1002C000FE0089E995E10197F1F700C00895CF9309
:1002D000DF93C82FD92F8881811531F021960E9494
:1002E0000F0189918111FBCFDF91CF910895CF93B9
:1002F000DF93C82F89E2C89F812D112482958F70CA
:10030000805D0E9471028DECC89FD12D1124D6957D
:10031000D695D695D89F812D11248695869586955C
:10032000982F990F990F890F880F9D2F981B892F50
:10033000805D0E9471028D2F880F880F8D0F880FAE
:10034000C81B8C2F805D0E947102DF91CF910895B0
:100350000E94690280E690E00E9475028CE790E0BE
:100360000E9475020E94D9020E9449000E94200149
:10037000B898C09A78940E9451000E945E0185EA64
:1003800090E00E946701FF24FA946AC00E949F00D7
:100390000E945E0188ED90E00E9467010F2DC0E091
:1003A000D0E005C02196C0349FE1D90751F0CE01BD
:1003B0000E945A03801708F4082F181798F7182F6F
:1003C000F1CF83EE90E00E947502802F0E947701AA
:1003D0008EEE90E00E947502812F0E94770184EFDB
:1003E00090E00E947502212F201B330BC9010E944F
:1003F00085028DE891E00E9475028CEF90E00E94EA
:100400007502C0E0D0E0CE010E945A030E94710242
:100410002196C0343FE1D307B1F78AE091E00E9412
:1004200075020E945E0186E191E00E9467018CE105
:1004300091E00E9475028FE996E821E0815090409A
:100440002040E1F700C000000E945E0185EA90E0D4
:100450000E94670183EC99E00197F1F700C000006A
:10046000B099F8CF8BE49DE10197F1F700C000004F
:1004700086B3182F117080FDF3CFB09BFECF8BE4B5
:100480009DE10197F1F700C000000E945E0182EB40
:1004900090E00E9467018FEB90E00E9475020E943D
:1004A000CD00CDEDD5E00E94DF0081116FCF0E941D
:1004B0009F0089EF90E00197F1F700C000002197BD
:1004C000209789F7109291018EEC90E00E947502BE
:1004D000B2CF10BC85E089B988E08AB986E880BDD2
:1004E00008955D9BFECF8CB90895CF93DF93C82FFD
:1004F000D92F8881811531F021960E94710289914E
:100500008111FBCFDF91CF910895EF92FF920F936E
:100510001F93CF93DF9300D000D000D0CDB7DEB7CC
:10052000482F592F1E828E010A5F1F4F9A01ADEC92
:10053000BCEC0E94D0039C013695279536952795F3
:1005400036952795C901880F991F880F991F820F2B
:10055000931F880F991FFA01E81BE05DD801EE9305
:100560008D017A019A01ADECBCEC0E94D003AC0184
:10057000569547955695479556954795BAE0EB168B
:10058000F104A0F60F5F1F4F8E2F0E947102D80159
:10059000ED918D01E111F8CF0F900F900F900F901A
:1005A0000F900F90DF91CF911F910F91FF90EF90DF
:1005B000089581B3886C81BB969A979A93988AB371
:1005C0008E6F8ABB8A9A8AB38E6F8ABB8A9A87B3E8
:1005D0008E6187BB81B3806381BB84B3806C84BB35
:1005E0008DE291E00E94750282E491E00E94750222
:1005F00088E691E00E9475020895282F392F8AB36A
:100600008E6F8ABB8A9A87B38E6187BB81B3806302
:1006100081BB84B3806C84BB8BB38170922F990FA4
:10062000892B8BBB27FF3CC0929A87E08A95F1F714
:1006300000C0939A87E08A95F1F700C0939887E00D
:100640008A95F1F700C09BB3832F880F9170892B97
:100650008BBB87E08A95F1F700C098B3262F862FD1
:10066000880F8E71917E892B88BB64FF1BC0949A82
:1006700065FF1AC0959A66FF19C0AE9A2115C4F09D
:10068000AF9887E08A95F1F700C0969882E18A9545
:10069000F1F700C0969A87E08A95F1F700C00895B7
:1006A0009298C3CF9498E4CF9598E5CFAE98E6CFD3
:1006B000AF9AE7CF282F392F8AB38E6F8ABB8A9AD9
:1006C00087B38E6187BB81B3806381BB84B3806C49
:1006D00084BB8BB38170922F990F892B8BBB27FF23
:1006E0005BC0929A87E08A95F1F700C0939A97E0F1
:1006F0009A95F1F700C0939887E08A95F1F700C0CA
:100700009BB3832F880F9170892B8BBB97E09A95B1
:10071000F1F700C08AB381708ABB81B38B7C81BB47
:1007200087B3817E87BB84B38F7384BB8BB38170A7
:100730008BBB82B38B7C82BB88B3817E88BB85B345
:100740008F7385BB87E08A95F1F700C0979892E197
:100750009A95F1F700C026B330E0359527952F70B4
:10076000822F84998061859980629E9980649F9987
:1007700015C0979A97E09A95F1F700C09AB39E6FCB
:100780009ABB8A9A97B39E6197BB91B3906391BBD2
:1007900094B3906C94BB08959298A4CF8068E9CFED
:1007A000A29FB001B39FC001A39F700D811D1124B2
:1007B000911DB29F700D811D1124911D0895F89413
:0207C000FFCF69
:1007C2000D0A3D3D3D20415544494F2044554D5071
:1007D2002054455354203D3D3D0D0A00507265732F
:1007E2007320627574746F6E20746F207265636F0C
:1007F200726420616E642064756D70206175646935
:100802006F2E0D0A00507265737320427574746FF7
:100812006E005265636F7264696E672E2E2E0052EF
:1008220065636F7264696E672E2E2E0D0A0054493D
:100832004D454F55540D0A0053656E64696E672E1F
:100842002E2E005354415453206D696E3D00206D8D
:1008520061783D002072616E67653D0041554449F3
:100862004F5F53544152540D0A00415544494F5F62
:10087200454E440D0A0053656E74210044756D7037
:1008820020636F6D706C6574652E0D0A00535241C2
:100892004D20496E697420636F6D706C6574650DCF
:1008A2000A0044617461206275733A205042312D0E
:1008B2005042342C205044342D5044352C20504387
:1008C200362D5043370D0A004345202870696E20AB
:1008D200323029204D55535420626520636F6E6E6D
:1008E200656374656420746F20474E44210D0A00CD
:00000001FF
