:100000000C942A000C9447000C9447000C94470071
:100010000C9447000C9447000C9447000C94490042
:100020000C9447000C9447000C9447000C94470034
:100030000C9447000C9447000C9447000C94470024
:100040000C9447000C9447000C9447000C94470014
:100050000C94470011241FBECFE5D8E0DEBFCDBF12
:1000600014E0A0E6B0E0EEE2FAE002C005900D92E6
:10007000A631B107D9F724E0A6E1B4E001C01D9292
:10008000A931B207E1F70E94FC010C9415050C940C
:1000900000001F920F920FB60F9211242F933F93DF
:1000A0004F935F936F937F938F939F93AF93BF9380
:1000B000EF93FF93CF93DF9300D000D00F92CDB793
:1000C000DEB780911604811511F18091170490918B
:1000D000180480349F41D8F4369A3699FECF35B152
:1000E0003B838091170490911804059740F180910B
:1000F0001704909118046B810E94A9048091170441
:1001000090911804019690931804809317040F900F
:100110000F900F900F900F90DF91CF91FF91EF9183
:10012000BF91AF919F918F917F916F915F914F910F
:100130003F912F910F900FBE0F901F90189580E662
:1001400090E00E9499042091170430911804ADECBE
:10015000BCEC0E9406059695879596958795969591
:100160008795805D0E949504E0911704F091180432
:100170009F01ADECBCEC0E9406059695879596957F
:10018000879596958795AC01440F551F440F551FD1
:10019000480F591F440F551FCF01841B805D0E94DB
:1001A000950487E690E00E94990489E29B81989FDC
:1001B000812D112482958F70805D0E9495048DECB5
:1001C0002B81289F912D112496959695969599832C
:1001D000989F812D1124869586958695982F990F45
:1001E000990F890F880F3981381B832F805D0E94FA
:1001F00095048981880F880F9981890F880F2B8139
:10020000281B822F805D0E9495048AE690E00E9460
:10021000990480911704909118049A8389839C0112
:10022000369527953695279536952795A5ECB0E216
:100230000E940605AC01529542954F7045275F70AC
:1002400045279A01ADECBCEC0E9406059C01369551
:1002500027953695279536952795C901880F991FBB
:10026000880F991F820F931F880F991F9A01281BCF
:10027000390BC901805D0E94950429813A81369528
:10028000279536952795ABE7B4E10E940605AC01AA
:10029000569547959A01ADECBCEC0E9406059C0171
:1002A000369527953695279536952795C901880F58
:1002B000991F880F991F820F931F880F991F9A010A
:1002C000281B390BC901805D0E94950429813A8160
:1002D000ADECBCEC0E9406059C0136952795369541
:1002E0002795369527953D832C830E9406059C0112
:1002F000369527953695279536952795C901880F08
:10030000991F880F991F820F931F880F991F2C81A7
:100310003D81281B390BC901805D0E9495048C81A9
:100320009D81880F991F880F991F2C813D81820F15
:10033000931F880F991F29813A81281B390BC90106
:10034000805D0E94950481E392E00E949904CFCEE3
:10035000EF92FF920F931F93CF93DF9300D000D0C3
:1003600000D0CDB7DEB7482F592F1E828E010A5F0D
:100370001F4F9A01ADECBCEC0E9406059C0136951E
:1003800027953695279536952795C901880F991F8A
:10039000880F991F820F931F880F991FFA01E81B7E
:1003A000E05DD801EE938D017A019A01ADECBCECD1
:1003B0000E940605AC01569547955695479556956A
:1003C0004795BAE0EB16F104A0F60F5F1F4F8E2F92
:1003D0000E949504D801ED918D01E111F8CF0F90A5
:1003E0000F900F900F900F900F90DF91CF911F9172
:1003F0000F91FF90EF90089500D000D0CDB7DEB7F9
:100400000E948D0487B3817E87BB81B38F7C81BBC3
:1004100084B38F7384BB88B38E6188BB82B38063DF
:1004200082BB85B3806C85BB84E790E00E94990411
:1004300081E990E00E94990486B38695182F1F7079
:1004400084991061859910629E9B96C19F9B77C18C
:10045000012F006C8CEB90E00E949904E02FE29554
:10046000EF70F0E0EB5FFB4F80810E9495041F70FE
:10047000E12FF0E0EB5FFB4F80810E94950481E368
:1004800092E00E9499040F3F09F091C18FEC90E037
:100490000E94990490C1012F0068979A84EA91E024
:1004A0000E949904E02FE295EF70F0E0EB5FFB4FC4
:1004B00080810E9495041F70E12FF0E0EB5FFB4FFD
:1004C00080810E94950481E392E00E9499040F3F8D
:1004D00089F483ED91E00E9499048DE092E00E94FE
:1004E000990484E392E00E9499048FE592E00E94CF
:1004F00099040CC08AE892E00E949904802F90E051
:100500000E94A80181E392E00E9499048DEA92E0A2
:100510000E94990487B38E6187BB81B3806381BBDE
:1005200084B3806C84BB85E59AEA9A8389838FEFD4
:1005300090E09C838B837E01EFEFEE1AFE0A6E0142
:10054000F5E0CF0ED11C3DC094987CC095987DC03D
:10055000AE987EC0AF9A80C09F99CDC0979A87B35E
:100560008E6187BB81B3806381BB84B3806C84BBA5
:1005700088EE92E00E949904E02FE295EF70F0E09F
:10058000EB5FFB4F80810E949504E02FEF70F0E05D
:10059000EB5FFB4F80810E949504011709F4ADC009
:1005A00086EF92E00E9499049FEFEFE5F3E091500F
:1005B000E040F040E1F700C00000CE14DF0409F491
:1005C000A1C0F70111917F0186EC92E00E9499048D
:1005D000E12FE295EF70F0E0EB5FFB4F80810E942E
:1005E0009504E12FEF70F0E0EB5FFB4F80810E94FC
:1005F000950481ED92E00E9499048BB381708BBBCE
:100600009298F7E0FA95F1F700C0939A27E02A95BF
:10061000F1F700C0939887E08A95F1F700C08BB39B
:10062000817080628BBB97E09A95F1F700C098B318
:10063000212F812F880F8E71917E892B88BB14FF0B
:1006400083CF949A15FF82CF959A16FF81CFAE9AE9
:1006500021150CF47FCFAF98E7E0EA95F1F700C0E1
:100660009698F2E1FA95F1F700C0969A27E02A955C
:10067000F1F700C087B3817E87BB81B38F7C81BBDC
:1006800084B38F7384BB88B3817E88BB82B38F7C35
:1006900082BB85B38F7385BB87E08A95F1F700C075
:1006A0008BB381708BBB929897E09A95F1F700C05D
:1006B000939AE7E0EA95F1F700C09398F7E0FA958E
:1006C000F1F700C08BB3817080628BBB27E02A9565
:1006D000F1F700C0979882E18A95F1F700C086B3E0
:1006E0008695082F0F7084990061859900629E9B02
:1006F00033CF006431CF006831CF80EF92E00E94A9
:10070000990452CF8EEF92E00E94990488E193E021
:100710000E9499048FE393E00E9499048EE693E08F
:100720000E94990483E993E00E94990487EB93E087
:100730000E9499048EED93E00E949904FFCF10640B
:100740001DC08CEB90E00E949904E12FE295EF70C0
:10075000E860F0E0EB5FFB4F80810E949504E12FA1
:10076000EF70F0E0EB5FFB4F80810E94950481E326
:1007700092E00E9499041BC09F99E3CF8CEB90E01C
:100780000E949904E12FE295EF70F0E0EB5FFB4FE0
:1007900080810E9495041F70E12FF0E0EB5FFB4F1A
:1007A00080810E94950481E392E00E94990487EF82
:1007B00090E00E9499048CE191E00E94990488E302
:1007C00091E00E9499048EEF8ABB81B38C6C81BB4F
:1007D00087B38E6187BB81B3806381BB84B3806C38
:1007E00084BB82B3806C82BB93988BB381708BBBCC
:1007F000929827E02A95F1F700C0939A87E08A95AE
:10080000F1F700C0939897E09A95F1F700C08BB389
:10081000817080628BBBE7E0EA95F1F700C088B396
:10082000817E88BB82B38F7C82BB85B38F7385BB8F
:10083000F7E0FA95F1F700C0969822E12A95F1F7D2
:1008400000C0969A87E08A95F1F700C08AE691E0A9
:100850000E94990487B3817E87BB81B38F7C81BB63
:1008600084B38F7384BB88B3817E88BB82B38F7C53
:1008700082BB85B38F7385BB97E09A95F1F700C073
:100880008BB381708BBB9298E7E0EA95F1F700C0DB
:10089000939AF7E0FA95F1F700C0939827E02A952C
:1008A000F1F700C08BB3817080628BBB87E08A95C3
:1008B000F1F700C0979892E19A95F1F700C086B3DE
:1008C0008695182F1F7084991061859910629E99E2
:1008D00010649F99E0CD979A84EA91E00E94990470
:1008E000E12FE295EF70F0E0EB5FFB4F80810E941B
:1008F0009504E12FEF70F0E0EB5FFB4F80810E94E9
:10090000950481E392E00E949904012F1111F2CD28
:1009100083EB91E00E949904F9CD10BC85E089B980
:1009200088E08AB986E880BD08955D9BFECF8CB9CA
:100930000895CF93DF93C82FD92F8881811531F087
:1009400021960E94950489918111FBCFDF91CF916F
:100950000895282F392F8AB38E6F8ABB8A9A87B35E
:100960008E6187BB81B3806381BB84B3806C84BBA1
:100970008BB38170922F990F892B8BBB27FF3CC0C3
:10098000929A87E08A95F1F700C0939A87E08A955A
:10099000F1F700C0939887E08A95F1F700C09BB308
:1009A000832F880F9170892B8BBB87E08A95F1F795
:1009B00000C098B3262F862F880F8E71917E892BC9
:1009C00088BB64FF1BC0949A65FF1AC0959A66FFA6
:1009D00019C0AE9A2115C4F0AF9887E08A95F1F757
:1009E00000C0969882E18A95F1F700C0969A87E058
:1009F0008A95F1F700C008959298C3CF9498E4CFF8
:100A00009598E5CFAE98E6CFAF9AE7CFA29FB00119
:100A1000B39FC001A39F700D811D1124911DB29F32
:0E0A2000700D811D1124911D0895F894FFCFD3
:100A2E0057726974655B005D3D0020746F206164D0
:100A3E00647220000D0A3D3D3D2042555320505515
:100A4E004C4C2D55502054455354203D3D3D0D0AE0
:100A5E000052656164696E6720646174612070691B
:100A6E006E7320776974682070756C6C2D75707359
:100A7E0020656E61626C65643A0D0A0044617461B2
:100A8E00206275732072656164733A20307800417C
:100A9E006C6C2070696E73207265616420484947E2
:100AAE0048202D2070756C6C2D75707320776F72C9
:100ABE006B696E670D0A00536F6D652070696E73FA
:100ACE0020737475636B204C4F57202D206368651F
:100ADE00636B20776972696E670D0A000D0A3D3DE2
:100AEE003D205352414D20445249564520544553C2
:100AFE0054203D3D3D0D0A0057726974696E6720A2
:100B0E003078303020746F206164647265737320A6
:100B1E003078313030302C207468656E207265610B
:100B2E0064696E672E2E2E0D0A0057726974652049
:100B3E00636F6D706C6574652E204E6F77207265D5
:100B4E006164696E6720285352414D2073686F753A
:100B5E006C642064726976652030783030292E2ED0
:100B6E002E0D0A00526561642076616C75653A201F
:100B7E003078005355434345535321205352414D32
:100B8E002064726F76652070696E73204C4F57210A
:100B9E000D0A004641494C3A205352414D206E6F8A
:100BAE00742064726976696E67202870696E73208E
:100BBE007374696C6C20484947482066726F6D20CB
:100BCE0070756C6C2D7570733F290D0A0043686546
:100BDE00636B3A205352414D2050696E20323020C3
:100BEE0028434529206D75737420626520474E4455
:100BFE00210D0A00436865636B3A205352414D2024
:100C0E0050696E20323220284F452920636F6E6E58
:100C1E00656374656420746F205044370D0A004379
:100C2E006865636B3A205352414D2050696E2032F5
:100C3E0037202857452920636F6E6E65637465648F
:100C4E0020746F205044360D0A004641494C3A201C
:100C5E005352414D2064726976696E6720706172DD
:100C6E007469616C2076616C75653A20000D0A3DE1
:100C7E003D3D205041545445524E2054455354202E
:100C8E003D3D3D0D0A0057726974696E67203078DC
:100C9E000020746F20616464726573732030783144
:100CAE003030302E2E2E2000726561642030780098
:100CBE00204F4B0D0A00204641494C0D0A000D0AEB
:100CCE003D3D3D205445535420434F4D504C4554CB
:100CDE0045203D3D3D0D0A000D0A496620616C6CB4
:100CEE002072656164732072657475726E6564201E
:100CFE00307830302C20636865636B3A0D0A003112
:100D0E002E205352414D2050696E20323020284300
:100D1E004529206D75737420626520636F6E6E6554
:100D2E006374656420746F20474E440D0A00322EA2
:100D3E00205352414D2050696E20323820285643A0
:100D4E004329206D7573742068617665202B3556A6
:100D5E000D0A00332E205352414D2050696E203122
:100D6E00342028474E4429206D75737420686176AF
:100D7E00652030560D0A00342E205352414D20501E
:100D8E00696E20323220284F452920636F6E6E65C2
:100D9E006374656420746F205044370D0A00352E3D
:100DAE00205352414D2050696E203237202857452E
:100DBE002920636F6E6E656374656420746F2050B6
:100DCE0044360D0A00303132333435363738394136
:060DDE00424344454600BB
:00000001FF
